34100000      080233572312000129                    01268 000000039903 5CONSORCIO SCK                 ITAU UNIBANCO SA                        10410202310415300000000000000                                                                     
34100011C3001040 233572312000129                    01268 000000039903 5CONSORCIO SCK                                                         RUA PERIPERI                  00062ANTIGO 158     SAO PAULO           04760060SP                  
3410001300001A00000034100390 000000011352 0CARLIONEI HOLANDA DE SOUSA    112169              06102023REA000000000000000000000000163100                    00000000000000000000000                    00000000018674525881                       
3410001300002A00000034102921 000000053433 1CARLITO PASTOR DA SILVA       112170              06102023REA000000000000000000000000104200                    00000000000000000000000                    00000000024939416836                       
3410001300003A00000034100390 000000010979 1ADILSON FLORES DE LIMA        112171              06102023REA000000000000000000000000156000                    00000000000000000000000                    00000000029529063865                       
3410001300004A00000034102921 000000052745 9ROGERIO OLIVEIRA LARA         112172              06102023REA000000000000000000000000217400                    00000000000000000000000                    00000000022521406821                       
3410001300005A00000034100390 000000012566 4ADRIANA MARIA REGIS DA SILVA  112173              06102023REA000000000000000000000000159600                    00000000000000000000000                    00000000034844014862                       
3410001300006A00000034101634 000000080765 3AGNALDO DA SILVA ARAUJO       112174              06102023REA000000000000000000000000144300                    00000000000000000000000                    00000000034356486862                       
3410001300007A00000034100390 000000012512 8ALESSANDRO DOS SANTOS MARTINS 112175              06102023REA000000000000000000000000145600                    00000000000000000000000                    00000000044830060883                       
3410001300008A00000034100390 000000011477 5CARLOS ALBERTO Q OLIVEIRA     112177              06102023REA000000000000000000000000281600                    00000000000000000000000                    00000000018477207810                       
3410001300009A00000034100390 000000012561 5IVANILDO JOSE DE FREITAS      112178              06102023REA000000000000000000000000153900                    00000000000000000000000                    00000000001035904802                       
3410001300010A00000034107660 000000029085 4CARLOS ALBERTO TEIXEIRA RAMOS 112179              06102023REA000000000000000000000000137800                    00000000000000000000000                    00000000017090494802                       
3410001300011A00000034100390 000000010822 3CARLOS DE OLIVEIRA BORGES     112183              06102023REA000000000000000000000000155000                    00000000000000000000000                    00000000025429148857                       
3410001300012A00000034100390 000000011414 8CARLOS DOS SANTOS             112184              06102023REA000000000000000000000000166700                    00000000000000000000000                    00000000004870249820                       
3410001300013A00000034101667 000000066723 0CARLOS HENRIQUE BASTOS DE OLIV112186              06102023REA000000000000000000000000155900                    00000000000000000000000                    00000000008697328896                       
3410001300014A00000034102921 000000052662 6CARLOS HENRIQUE TEIXEIRA      112187              06102023REA000000000000000000000000185200                    00000000000000000000000                    00000000034916856805                       
3410001300015A00000034101003 000000087456 5JOSE RICARDO DA SILVA         112188              06102023REA000000000000000000000000190800                    00000000000000000000000                    00000000040822375850                       
3410001300016A00000034109104 000000020269 3JOSE ROBERTO AVANZI           112189              06102023REA000000000000000000000000157100                    00000000000000000000000                    00000000017923012865                       
3410001300017A00000034101661 000000044520 3MARIA APARECIDA RIBEIRO DIAS  112193              06102023REA000000000000000000000000118100                    00000000000000000000000                    00000000008329537846                       
3410001300018A00000034108485 000000020550 7ABELITO FERREIRA DOS SANTOS   112194              06102023REA000000000000000000000000166700                    00000000000000000000000                    00000000004463077850                       
3410001300019A00000034109106 000000033393 4ROGERIO PIRES                 112196              06102023REA000000000000000000000000143800                    00000000000000000000000                    00000000037768995813                       
3410001300020A00000034108495 000000019255 4ADAELSON ADAUTO S DE SIQUEIRA 112198              06102023REA000000000000000000000000160500                    00000000000000000000000                    00000000020099389843                       
3410001300021A00000034100390 000000010309 1ROGERIO RODRIGUES SANTANA     112199              06102023REA000000000000000000000000151000                    00000000000000000000000                    00000000037406429800                       
3410001300022A00000034102978 000000036774 2MARIA DA CONCEICAO DE S FELIX 112201              06102023REA000000000000000000000000145000                    00000000000000000000000                    00000000052490190300                       
3410001300023A00000034109106 000000033436 1ROMILDO BESERRA DE ALENCAR    112202              06102023REA000000000000000000000000147800                    00000000000000000000000                    00000000017777725831                       
3410001300024A00000034106429 000000020587 2JOANA MORAIS OLIVEIRA         112204              06102023REA000000000000000000000000048000                    00000000000000000000000                    00000000007709697801                       
3410001300025A00000034109104 000000019891 7JOSE ROBERTO SOARES DA SILVA  112205              06102023REA000000000000000000000000157500                    00000000000000000000000                    00000000018473650867                       
3410001300026A00000034100390 000000012598 7JOAO EVANGELISTA V NASCIMENTO 112208              06102023REA000000000000000000000000048200                    00000000000000000000000                    00000000002278242881                       
3410001300027A00000034106677 000000041663 5JOSE ROBERTO SOARES DE ANDRADE112209              06102023REA000000000000000000000000156100                    00000000000000000000000                    00000000031303899892                       
3410001300028A00000034102978 000000036776 7JOELMA MARIA DE SOUSA         112212              06102023REA000000000000000000000000145000                    00000000000000000000000                    00000000003307566300                       
3410001300029A00000034109106 000000033463 5JOSE ROMILDO ARAUJO DOS SANTOS112213              06102023REA000000000000000000000000157400                    00000000000000000000000                    00000000035738786874                       
3410001300030A00000034100390 000000010871 0SAMARA CORSI VIEIRA           112217              06102023REA000000000000000000000000157000                    00000000000000000000000                    00000000036466232840                       
3410001300031A00000034103247 000000014562 0JEFFERSON DE LIMA SILVA       112218              06102023REA000000000000000000000000166600                    00000000000000000000000                    00000000023067215800                       
3410001300032A00000034106734 000000016872 4SAMUEL DOS SANTOS SOUZA ARAUJO112220              06102023REA000000000000000000000000165400                    00000000000000000000000                    00000000041467200875                       
3410001300033A00000034103247 000000016439 9JOSE DAS GRACAS DOS SANTOS    112221              06102023REA000000000000000000000000160200                    00000000000000000000000                    00000000015323974885                       
3410001300034A00000034100390 000000011537 6JOSE ROMIRAN DA SILVA         112222              06102023REA000000000000000000000000157600                    00000000000000000000000                    00000000031601494807                       
3410001300035A00000034106429 000000020553 4JOSE MARIA FERREIRA DE SOUSA  112223              06102023REA000000000000000000000000182600                    00000000000000000000000                    00000000039665207881                       
3410001300036A00000034109106 000000033467 6SEVERINO CANDIDO DA SILVA     112224              06102023REA000000000000000000000000144900                    00000000000000000000000                    00000000051567954472                       
3410001300037A00000034101661 000000050298 7JAILTON DE AZEVEDO SILVA      112226              06102023REA000000000000000000000000051000                    00000000000000000000000                    00000000035714246896                       
3410001300038A00000034109104 000000020353 5JOSE RONILTON DOS SANTOS      112227              06102023REA000000000000000000000000152600                    00000000000000000000000                    00000000002539429858                       
3410001300039A00000034100390 000000010868 6SEVERINO PEDRO DA SILVA       112228              06102023REA000000000000000000000000157000                    00000000000000000000000                    00000000030385570805                       
3410001300040A00000034101667 000000071625 0SEVERINO PEREIRA DE MELO      112229              06102023REA000000000000000000000000157100                    00000000000000000000000                    00000000068758634487                       
3410001300041A00000034103052 000000016648 9MARIA DE FATIMA FARIAS SILVA  112230              06102023REA000000000000000000000000127400                    00000000000000000000000                    00000000038527260425                       
3410001300042A00000034100390 000000010936 1JOAO BATISTA DA SILVA         112232              06102023REA000000000000000000000000167000                    00000000000000000000000                    00000000059325887991                       
3410001300043A00000034100390 000000010776 1TOME DE JESUS SANTOS          112235              06102023REA000000000000000000000000153800                    00000000000000000000000                    00000000021883888875                       
3410001300044A00000034107283 000000014170 8JOAO CARLOS ARAUJO DA SILVA   112236              06102023REA000000000000000000000000137600                    00000000000000000000000                    00000000034473888894                       
3410001300045A00000034109106 000000034116 8UELTON SANTOS DE ARAUJO       112237              06102023REA000000000000000000000000162200                    00000000000000000000000                    00000000038917729800                       
3410001300046A00000034100390 000000010832 2JOAO JOSE DA SILVA            112238              06102023REA000000000000000000000000166600                    00000000000000000000000                    00000000045068771449                       
3410001300047A00000034100390 000000011586 3JOSE SATURNINO DE OLIVEIRA    112239              06102023REA000000000000000000000000170700                    00000000000000000000000                    00000000007762600817                       
3410001300048A00000034100265 000000077642 7MARIA JOSE MARTINS BRAGA      112240              06102023REA000000000000000000000000197000                    00000000000000000000000                    00000000028135240856                       
3410001300049A00000034109106 000000034113 5VALMIR DOS SANTOS MACHADO     112242              06102023REA000000000000000000000000152000                    00000000000000000000000                    00000000034657281810                       
3410001300050A00000034106429 000000020582 3JOAO MARTINS DE SOBRAL        112245              06102023REA000000000000000000000000166600                    00000000000000000000000                    00000000004836010802                       
3410001300051A00000034100390 000000010975 9JOAO SEBASTIAO DA SILVA       112248              06102023REA000000000000000000000000167300                    00000000000000000000000                    00000000062262424420                       
3410001300052A00000034109106 000000034107 7WILLIAM ALVES DO NASCIMENTO   112250              06102023REA000000000000000000000000135600                    00000000000000000000000                    00000000042239080817                       
3410001300053A00000034100390 000000010928 8JOSE ALVES DA SILVA           112252              06102023REA000000000000000000000000167000                    00000000000000000000000                    00000000088421252534                       
3410001300054A00000034100390 000000011474 2JOSE SERGIO OLIVEIRA DA SILVA 112253              06102023REA000000000000000000000000290200                    00000000000000000000000                    00000000028143122867                       
3410001300055A00000034106733 000000029583 3ADELCIO PIMENTEL DOS SANTOS   112254              06102023REA000000000000000000000000247300                    00000000000000000000000                    00000000035484056810                       
3410001300056A00000034100390 000000010749 8JOSE ARNALDO DOS SANTOS       112255              06102023REA000000000000000000000000157400                    00000000000000000000000                    00000000047210346449                       
3410001300057A00000034109106 000000034143 2JOSE SOARES                   112256              06102023REA000000000000000000000000110800                    00000000000000000000000                    00000000014686452856                       
3410001300058A00000034108485 000000021553 0ROMILDO GOMES DE MELO         112257              06102023REA000000000000000000000000156400                    00000000000000000000000                    00000000006674242888                       
3410001300059A00000034109340 000000057879 9ADELSON BEZERRA DA SILVA      112258              06102023REA000000000000000000000000156600                    00000000000000000000000                    00000000030030503892                       
3410001300060A00000034100390 000000010947 8JOSE AUGUSTO SANTOS DO CARMO  112259              06102023REA000000000000000000000000161700                    00000000000000000000000                    00000000053261615591                       
3410001300061A00000034106429 000000020581 5ROMILDO SANTOS                112261              06102023REA000000000000000000000000161600                    00000000000000000000000                    00000000014519306825                       
3410001300062A00000034109104 000000020525 8MARIA MADALENA LIMA CARDOSO   112262              06102023REA000000000000000000000000136000                    00000000000000000000000                    00000000002326696867                       
3410001300063A00000034109106 000000033464 3RONALDO DE SOUZA JESUS        112263              06102023REA000000000000000000000000156800                    00000000000000000000000                    00000000037466517862                       
3410001300064A00000034100390 000000010986 6JOSE DOMINGOS A DE OLIVEIRA   112264              06102023REA000000000000000000000000166600                    00000000000000000000000                    00000000009942290893                       
3410001300065A00000034100390 000000010789 4ADELSON DOS SANTOS TEIXEIRA   112265              06102023REA000000000000000000000000149600                    00000000000000000000000                    00000000006425118539                       
3410001300066A00000034100390 000000012502 9JOSE VANDERLEI MARTINS        112268              06102023REA000000000000000000000000157600                    00000000000000000000000                    00000000030402075803                       
3410001300067A00000034101661 000000044839 7JOSE MANOEL PEREIRA           112269              06102023REA000000000000000000000000166600                    00000000000000000000000                    00000000012870488890                       
3410001300068A00000034109106 000000033907 1ADELSON FRANCISCO FREITAS     112271              06102023REA000000000000000000000000149200                    00000000000000000000000                    00000000034325428879                       
3410001300069A00000034106753 000000023877 0JOSE VANDICO ARAUJO DOS SANTOS112273              06102023REA000000000000000000000000096000                    00000000000000000000000                    00000000042602564320                       
3410001300070A00000034108846 000000032100 1ROSELIO BRAZ FERREIRA         112274              06102023REA000000000000000000000000170700                    00000000000000000000000                    00000000029146898883                       
3410001300071A00000034106753 000000023862 2MARINALDO FERREIRA DOS SANTOS 112277              06102023REA000000000000000000000000149000                    00000000000000000000000                    00000000001911642405                       
3410001300072A00000034100390 000000012301 6ROSIVALDO FERREIRA DA SILVA   112278              06102023REA000000000000000000000000157600                    00000000000000000000000                    00000000000594002508                       
3410001300073A00000034109104 000000021803 8ADEMIR MANOEL DA SILVA        112279              06102023REA000000000000000000000000063900                    00000000000000000000000                    00000000026083414890                       
3410001300074A00000034106429 000000020632 6JOSE NERIS DA SILVA           112280              06102023REA000000000000000000000000166600                    00000000000000000000000                    00000000001316103846                       
3410001300075A00000034102921 000000052725 1JOSE WELLITON MATEUS GOMES    112281              06102023REA000000000000000000000000205400                    00000000000000000000000                    00000000028652803811                       
3410001300076A00000034101634 000000067775 9RUDIMAR DIONISIO MARINHO      112282              06102023REA000000000000000000000000157000                    00000000000000000000000                    00000000085463795487                       
3410001300077A00000034108576 000000030122 3JOSE MARIA DE SOUSA           112283              06102023REA000000000000000000000000157600                    00000000000000000000000                    00000000002838137336                       
3410001300078A00000034108485 000000020626 5ELISEU DE CARVALHO NETO       112288              06102023REA000000000000000000000000156400                    00000000000000000000000                    00000000026170147890                       
3410001300079A00000034101634 000000025540 8SERGIO JOSE DA SILVA          112290              06102023REA000000000000000000000000166600                    00000000000000000000000                    00000000026277374818                       
3410001300080A00000034107245 000000001719 4JOSEMAR CELESTINO DOS SANTOS  112292              06102023REA000000000000000000000000287500                    00000000000000000000000                    00000000014796426817                       
3410001300081A00000034100390 000000010817 3SEVERINO DO RAMO FERREIRA LIMA112294              06102023REA000000000000000000000000156700                    00000000000000000000000                    00000000001859920489                       
3410001300082A00000034100390 000000010861 1JOSENILSON FELICIO DOS SANTOS 112296              06102023REA000000000000000000000000144800                    00000000000000000000000                    00000000045557148817                       
3410001300083A00000034109106 000000033414 8ELIVANIO BARBOSA SANTOS       112297              06102023REA000000000000000000000000286700                    00000000000000000000000                    00000000002045488535                       
3410001300084A00000034100390 000000012617 5SILVANI COELHO DE OLIVEIRA    112298              06102023REA000000000000000000000000157000                    00000000000000000000000                    00000000090368240606                       
3410001300085A00000034105917 000000003975 1ADEMIR SILVA LIMA             112299              06102023REA000000000000000000000000157000                    00000000000000000000000                    00000000040366073591                       
3410001300086A00000034109106 000000033430 4ROGERIO LUIZ RODRIGUES DA SILV112301              06102023REA000000000000000000000000149600                    00000000000000000000000                    00000000037514856862                       
3410001300087A00000034102978 000000036792 4JESUS FERREIRA DE CARVALHO    112303              06102023REA000000000000000000000000135200                    00000000000000000000000                    00000000029927898878                       
3410001300088A00000034100641 000000015213 7MARIO FERREIRA PACHECO        112306              06102023REA000000000000000000000000166700                    00000000000000000000000                    00000000095551549887                       
3410001300089A00000034109106 000000033422 1JOAQUIM INACIO DE BRITO FILHO 112307              06102023REA000000000000000000000000166600                    00000000000000000000000                    00000000004133261879                       
3410001300090A00000034109106 000000033416 3JOSEVAL FERREIRA MIRANDA      112309              06102023REA000000000000000000000000144400                    00000000000000000000000                    00000000028252557856                       
3410001300091A00000034109106 000000033739 8JOSE ADAO RODRIGUES           112315              06102023REA000000000000000000000000164600                    00000000000000000000000                    00000000001376766892                       
3410001300092A00000034105917 000000003817 5CARLOS ROBERTO BARBOSA SALES  112318              06102023REA000000000000000000000000129400                    00000000000000000000000                    00000000070851824587                       
3410001300093A00000034109106 000000036575 3ADILSON DE M FERREIRA JUNIOR  112319              06102023REA000000000000000000000000162100                    00000000000000000000000                    00000000033489900847                       
3410001300094A00000034106429 000000020554 2JOSE CAMILO SILVEIRA          112320              06102023REA000000000000000000000000157800                    00000000000000000000000                    00000000014841655867                       
3410001300095A00000034105670 000000000825 8UELISON SILVA DOS SANTOS      112322              06102023REA000000000000000000000000205200                    00000000000000000000000                    00000000041453268812                       
3410001300096A00000034109042 000000003488 5CARLOS ROBERTO DA SILVA       112324              06102023REA000000000000000000000000119500                    00000000000000000000000                    00000000014427116809                       
3410001300097A00000034100390 000000012506 0CARLOS ROBERTO DA SILVA JESUS 112327              06102023REA000000000000000000000000042700                    00000000000000000000000                    00000000037785472831                       
3410001300098A00000034100390 000000011556 6JOSE CARLOS ZACARIAS          112328              06102023REA000000000000000000000000157000                    00000000000000000000000                    00000000025468037866                       
3410001300099A00000034100390 000000012622 5VAGNER SOARES                 112329              06102023REA000000000000000000000000126900                    00000000000000000000000                    00000000034100982836                       
3410001300100A00000034102978 000000036827 8JOSE RAIMUNDO DA SILVA MATOS  112330              06102023REA000000000000000000000000156600                    00000000000000000000000                    00000000029071185877                       
3410001300101A00000034109106 000000034569 8VALDEMAR DOS SANTOS           112331              06102023REA000000000000000000000000156400                    00000000000000000000000                    00000000060611626420                       
3410001300102A00000034103006 000000020394 1VALDINEI MARTINS CRUZ         112332              06102023REA000000000000000000000000091900                    00000000000000000000000                    00000000007709761666                       
3410001300103A00000034101003 000000081668 1VALTER JOSE DA SILVA          112333              06102023REA000000000000000000000000156400                    00000000000000000000000                    00000000014271632864                       
3410001300104A00000034109106 000000043965 7CARLOS ROBERTO ROCHA DA SILVA 112334              06102023REA000000000000000000000000119100                    00000000000000000000000                    00000000073473456349                       
3410001300105A00000034108719 000000004328 6JOSE MARCOS DA SILVA QUINTINO 112337              06102023REA000000000000000000000000157000                    00000000000000000000000                    00000000020000183865                       
3410001300106A00000034109340 000000058003 5JHONY ROCHA DE LIMA           112338              06102023REA000000000000000000000000142400                    00000000000000000000000                    00000000045131793840                       
3410001300107A00000034100738 000000039651 4CARLOS ROGER DE SOUZA JESUS   112340              06102023REA000000000000000000000000261100                    00000000000000000000000                    00000000040747803803                       
3410001300108A00000034100390 000000052353 8JOAO BATISTA DOS SANTOS       112341              06102023REA000000000000000000000000048400                    00000000000000000000000                    00000000026901364814                       
3410001300109A00000034100390 000000010730 8WALLACE TAVARES DA SILVA      112345              06102023REA000000000000000000000000205800                    00000000000000000000000                    00000000019579434832                       
3410001300110A00000034109340 000000051419 0JOAO DOMINGOS DA SILVA FILHO  112346              06102023REA000000000000000000000000145000                    00000000000000000000000                    00000000075698986487                       
3410001300111A00000034105917 000000003859 7CARLOS SIMON SELIS DE OLIVEIRA112348              06102023REA000000000000000000000000119900                    00000000000000000000000                    00000000032944138820                       
3410001300112A00000034106677 000000034501 6JOAO PAULO VIEIRA             112349              06102023REA000000000000000000000000149600                    00000000000000000000000                    00000000040244809879                       
3410001300113A00000034100846 000000030606 6JOSE CARLOS ROQUE DA SILVA    112352              06102023REA000000000000000000000000151900                    00000000000000000000000                    00000000082605645487                       
3410001300114A00000034105917 000000003693 0JOSE GASPARINO DE BRITO       112353              06102023REA000000000000000000000000114200                    00000000000000000000000                    00000000007762579869                       
3410001300115A00000034100390 000000010818 1WESLEY BALBINO DA SILVA       112354              06102023REA000000000000000000000000146200                    00000000000000000000000                    00000000046358309854                       
3410001300116A00000034100641 000000015204 6ADILSON GOMES EMIDIO          112355              06102023REA000000000000000000000000119200                    00000000000000000000000                    00000000011252834837                       
3410001300117A00000034109106 000000033382 7ADILSON GONCALVES DA SILVA    112358              06102023REA000000000000000000000000121100                    00000000000000000000000                    00000000001708311599                       
3410001300118A00000034109106 000000036095 2ELIZEU DA SILVA PEREIRA       112359              06102023REA000000000000000000000000161400                    00000000000000000000000                    00000000026457112862                       
3410001300119A00000034106676 000000004554 2WILIAM MOREIRA NASCIMENTO     112363              06102023REA000000000000000000000000136700                    00000000000000000000000                    00000000032289122807                       
3410001300120A00000034109106 000000033998 0JOSIVALDO SILVA DE MELO       112364              06102023REA000000000000000000000000125500                    00000000000000000000000                    00000000073473090425                       
3410001300121A00000034102978 000000036810 4ELOI ALENCAR MATIAS           112366              06102023REA000000000000000000000000333700                    00000000000000000000000                    00000000003239244845                       
3410001300122A00000034106676 000000005113 6WILLIAM LIMA DE JESUS         112368              06102023REA000000000000000000000000143100                    00000000000000000000000                    00000000023015618873                       
3410001300123A00000034109340 000000055558 1JOVELINA MARIA DA SILVA       112370              06102023REA000000000000000000000000145000                    00000000000000000000000                    00000000032814241800                       
3410001300124A00000034109104 000000020322 0ELOISA LOPES LARANJEIRA       112372              06102023REA000000000000000000000000167500                    00000000000000000000000                    00000000001019032863                       
3410001300125A00000034109104 000000020593 6MARLI MARIA FAGUNDES DE JESUS 112373              06102023REA000000000000000000000000048600                    00000000000000000000000                    00000000026880043879                       
3410001300126A00000034105917 000000004760 6WILTON SOUSA SILVA            112376              06102023REA000000000000000000000000185000                    00000000000000000000000                    00000000042014519846                       
3410001300127A00000034108485 000000020629 9ADRIANO DA SILVA PEREIRA      112377              06102023REA000000000000000000000000191500                    00000000000000000000000                    00000000035085388852                       
3410001300128A00000034109106 000000033546 7ELSON AMORIM DE SOUSA         112378              06102023REA000000000000000000000000186800                    00000000000000000000000                    00000000013515575804                       
3410001300129A00000034109106 000000033962 6JUAN CARLOS DIAZ BASCUR       112379              06102023REA000000000000000000000000131300                    00000000000000000000000                    00000000025520452865                       
3410001300130A00000034109106 000000033126 8MARTINHO DAMASCENA BRANDAO    112380              06102023REA000000000000000000000000161100                    00000000000000000000000                    00000000005278385863                       
3410001300131A00000034102921 000000052210 4RONALDO GONCALVES DA PENHA    112381              06102023REA000000000000000000000000183900                    00000000000000000000000                    00000000031293102822                       
3410001300132A00000034109106 000000033408 0ELSON DOS SANTOS SILVA        112382              06102023REA000000000000000000000000284300                    00000000000000000000000                    00000000038435670856                       
3410001300133A00000034105917 000000003824 1RONALDO JOSE DOS SANTOS       112383              06102023REA000000000000000000000000157600                    00000000000000000000000                    00000000002960939476                       
3410001300134A00000034101003 000000050881 7JUARES ANTONIO DA SILVA       112384              06102023REA000000000000000000000000252700                    00000000000000000000000                    00000000007578037846                       
3410001300135A00000034108341 000000025652 0ADRIANO MONTEIRO DOS SANTOS   112389              06102023REA000000000000000000000000137300                    00000000000000000000000                    00000000059492430487                       
3410001300136A00000034109104 000000021388 0MARTINS TOMAZ DE MIRANDA      112392              06102023REA000000000000000000000000167500                    00000000000000000000000                    00000000010006196802                       
3410001300137A00000034108781 000000013784 2ADRIANO NEVES DE MATOS        112393              06102023REA000000000000000000000000110600                    00000000000000000000000                    00000000003058908598                       
3410001300138A00000034109104 000000020346 9JULIANA ALVES DE OLIVEIRA     112394              06102023REA000000000000000000000000149600                    00000000000000000000000                    00000000040118694812                       
3410001300139A00000034107867 000000027349 7MATHEUS CASTRO SENA ROSA      112397              06102023REA000000000000000000000000146600                    00000000000000000000000                    00000000042829770862                       
3410001300140A00000034100390 000000010989 0ROGERIO DOS SANTOS ARAUJO     112398              06102023REA000000000000000000000000157400                    00000000000000000000000                    00000000015331450830                       
3410001300141A00000034107867 000000007498 6ADRIANO RAMOS DOS SANTOS      112399              06102023REA000000000000000000000000052600                    00000000000000000000000                    00000000003623836508                       
3410001300142A00000034109106 000000033985 7EMERSON ARAUJO PEDROSO        112400              06102023REA000000000000000000000000165700                    00000000000000000000000                    00000000042741169802                       
3410001300143A00000034100390 000000010856 1JULIANO LAURINDO CAMILO VICENT112401              06102023REA000000000000000000000000267500                    00000000000000000000000                    00000000022793652865                       
3410001300144A00000034107245 000000005801 6MATHEUS DANTAS                112402              06102023REA000000000000000000000000169600                    00000000000000000000000                    00000000044512454861                       
3410001300145A00000034100350 000000001114 4ROGERIO DO ESPIRITO SANTOS    112403              06102023REA000000000000000000000000182700                    00000000000000000000000                    00000000039077564870                       
3410001300146A00000034106753 000000011023 5MATHEUS FERREIRA MACIEL       112405              06102023REA000000000000000000000000136500                    00000000000000000000000                    00000000052149009889                       
3410001300147A00000034109340 000000052272 2JOSE GERALDO DE OLIVEIRA      112408              06102023REA000000000000000000000000141800                    00000000000000000000000                    00000000018472123871                       
3410001300148A00000034109340 000000056868 3JOSE INALDO DOS SANTOS SANTANA112409              06102023REA000000000000000000000000148500                    00000000000000000000000                    00000000049862499591                       
3410001300149A00000034108485 000000020494 8EMERSON GOMES DA SILVA        112410              06102023REA000000000000000000000000289300                    00000000000000000000000                    00000000032729420843                       
3410001300150A00000034100738 000000047029 3EMERSON NEVES COSTA           112413              06102023REA000000000000000000000000335500                    00000000000000000000000                    00000000032648973850                       
3410001300151A00000034101684 000000043563 7ROGERIO DE AQUINO SILVA       112414              06102023REA000000000000000000000000287900                    00000000000000000000000                    00000000027935774803                       
3410001300152A00000034100390 000000010906 4JUNIOR CESAR APARECIDO FERREIR112415              06102023REA000000000000000000000000263000                    00000000000000000000000                    00000000015143551676                       
3410001300153A00000034109104 000000021380 7EMERSON PAULO DA SILVA LIMA   112417              06102023REA000000000000000000000000157500                    00000000000000000000000                    00000000033655203845                       
3410001300154A00000034109104 000000021448 2JURACI BARBOSA SANTOS         112418              06102023REA000000000000000000000000167000                    00000000000000000000000                    00000000052598730500                       
3410001300155A00000034100390 000000010838 9AFONSO CIMINIO                112419              06102023REA000000000000000000000000146600                    00000000000000000000000                    00000000002289758833                       
3410001300156A00000034109340 000000055961 7JURACI CUSTODIO DE LIMA       112421              06102023REA000000000000000000000000145000                    00000000000000000000000                    00000000052694208487                       
3410001300157A00000034100390 000000012607 6AGNALDO BISPO DOS SANTOS      112422              06102023REA000000000000000000000000157000                    00000000000000000000000                    00000000017587783857                       
3410001300158A00000034106733 000000031237 2RUBENS DE ALMEIDA             112428              06102023REA000000000000000000000000167200                    00000000000000000000000                    00000000014893098888                       
3410001300159A00000034102978 000000036794 0AGNELO MARTINS DE SOUZA       112430              06102023REA000000000000000000000000145300                    00000000000000000000000                    00000000017749633880                       
3410001300160A00000034109106 000000034368 5JUREMIR ALVES BARROSO         112431              06102023REA000000000000000000000000150800                    00000000000000000000000                    00000000038781141840                       
3410001300161A00000034109340 000000057990 4RUBENS SANTOS OLIVEIRA JUNIOR 112432              06102023REA000000000000000000000000143900                    00000000000000000000000                    00000000044403455816                       
3410001300162A00000034100390 000000012653 0AGRIPINO BRANDAO DE SOUZA SOBR112433              06102023REA000000000000000000000000196800                    00000000000000000000000                    00000000003390105689                       
3410001300163A00000034105917 000000004063 5SAMUEL ALVES DOS ANJOS        112434              06102023REA000000000000000000000000156000                    00000000000000000000000                    00000000010720122864                       
3410001300164A00000034100390 000000012472 5AGUINALDO NASCIMENTO          112436              06102023REA000000000000000000000000205100                    00000000000000000000000                    00000000028058523895                       
3410001300165A00000034100390 000000010769 6JUSCELINO FERREIRA FILHO      112437              06102023REA000000000000000000000000287200                    00000000000000000000000                    00000000014206912602                       
3410001300166A00000034100390 000000010753 0ERALDO COSME DA SILVA         112439              06102023REA000000000000000000000000247100                    00000000000000000000000                    00000000005038809499                       
3410001300167A00000034107486 000000017655 0RODRIGO OLIVEIRA DA CRUZ      112440              06102023REA000000000000000000000000457300                    00000000000000000000000                    00000000032623052867                       
3410001300168A00000034109340 000000057904 5JOSE MANOEL DA CRUZ           112442              06102023REA000000000000000000000000144400                    00000000000000000000000                    00000000073329398434                       
3410001300169A00000034109106 000000034247 1CASSIA GOMES DA SILVA         112443              06102023REA000000000000000000000000110000                    00000000000000000000000                    00000000092900313953                       
3410001300170A00000034100160 000000022118 0SAMUEL DE ALCANTARA           112444              06102023REA000000000000000000000000130200                    00000000000000000000000                    00000000039308101829                       
3410001300171A00000034100390 000000010783 7MAURA GOMES DOS SANTOS CRUZ   112445              06102023REA000000000000000000000000157400                    00000000000000000000000                    00000000029116745884                       
3410001300172A00000034109106 000000033746 3RODRIGO LOPES DA SILVA        112448              06102023REA000000000000000000000000156600                    00000000000000000000000                    00000000023745357892                       
3410001300173A00000034103052 000000016792 5ERALDO SILVA DE OLIVEIRA      112449              06102023REA000000000000000000000000138200                    00000000000000000000000                    00000000039791723842                       
3410001300174A00000034109335 000000015825 0JEFFERSON SANTOS FERRAZ       112451              06102023REA000000000000000000000000170100                    00000000000000000000000                    00000000038088429897                       
3410001300175A00000034100390 000000012630 8MAURICIO MANOEL FEBRONIO      112453              06102023REA000000000000000000000000167100                    00000000000000000000000                    00000000031608926893                       
3410001300176A00000034106733 000000031137 4SEBASTIAO DOS REIS OLIVEIRA   112457              06102023REA000000000000000000000000157600                    00000000000000000000000                    00000000011702334813                       
3410001300177A00000034109104 000000020368 3RODRIGO DOS SANTOS OLIVEIRA   112458              06102023REA000000000000000000000000146800                    00000000000000000000000                    00000000023563152845                       
3410001300178A00000034106429 000000020589 8JOAQUIM BARBOSA FILHO         112459              06102023REA000000000000000000000000216000                    00000000000000000000000                    00000000022650633808                       
3410001300179A00000034106753 000000024004 0SERGIO LOPES FERREIRA         112461              06102023REA000000000000000000000000205200                    00000000000000000000000                    00000000034897192803                       
3410001300180A00000034100390 000000010869 4AILTON ALVES DA SILVA         112462              06102023REA000000000000000000000000091000                    00000000000000000000000                    00000000017698110877                       
3410001300181A00000034109340 000000057920 1JOHNATAN FELIPE MARQUES MOTA  112465              06102023REA000000000000000000000000156400                    00000000000000000000000                    00000000043122716828                       
3410001300182A00000034100390 000000017987 7MAURICIO SANTANA              112469              06102023REA000000000000000000000000136700                    00000000000000000000000                    00000000011784528838                       
3410001300183A00000034109106 000000033379 3JUSCIMAR FERREIRA DA LOMBA    112470              06102023REA000000000000000000000000175300                    00000000000000000000000                    00000000013778262602                       
3410001300184A00000034106753 000000023921 6ERASMO MIRANDA DOS SANTOS     112471              06102023REA000000000000000000000000156900                    00000000000000000000000                    00000000035166277864                       
3410001300185A00000034103169 000000007896 5SEVERINO MANOEL DE FREITAS    112472              06102023REA000000000000000000000000144400                    00000000000000000000000                    00000000034771540888                       
3410001300186A00000034109042 000000003494 3ERICK WILLIAM BORGES ARAUJO   112473              06102023REA000000000000000000000000182800                    00000000000000000000000                    00000000034557705847                       
3410001300187A00000034105917 000000003872 0SIDNEI LOPES DA SILVA         112475              06102023REA000000000000000000000000157000                    00000000000000000000000                    00000000069075670591                       
3410001300188A00000034106429 000000021317 3MAURO CESAR DA SILVA          112476              06102023REA000000000000000000000000313700                    00000000000000000000000                    00000000025836888809                       
3410001300189A00000034106429 000000020590 6KELBER JESUS DOS SANTOS       112478              06102023REA000000000000000000000000245600                    00000000000000000000000                    00000000041311455884                       
3410001300190A00000034106753 000000021266 8SILVIO LUIZ DOS SANTOS        112481              06102023REA000000000000000000000000217800                    00000000000000000000000                    00000000011857549899                       
3410001300191A00000034109340 000000062921 2TIAGO DO NASCIMENTO FARIAS    112483              06102023REA000000000000000000000000205000                    00000000000000000000000                    00000000028409270803                       
3410001300192A00000034106753 000000023851 5TIAGO DOS SANTOS COSTA        112485              06102023REA000000000000000000000000099300                    00000000000000000000000                    00000000006248029490                       
3410001300193A00000034109340 000000053508 8TIBURTINO BESERRA DA SILVA NET112489              06102023REA000000000000000000000000166600                    00000000000000000000000                    00000000044635753468                       
3410001300194A00000034100390 000000011479 1CELSO APARECIDO AVELINO       112490              06102023REA000000000000000000000000206400                    00000000000000000000000                    00000000029249013833                       
3410001300195A00000034109340 000000058803 8MICHAEL DOMINGOS MACHADO SANTO112492              06102023REA000000000000000000000000137400                    00000000000000000000000                    00000000050529507803                       
3410001300196A00000034109104 000000020626 4ERIVALDO PEREIRA DE GOUVEIA   112494              06102023REA000000000000000000000000217500                    00000000000000000000000                    00000000040593530861                       
3410001300197A00000034106322 000000024526 4JOSE HILDO DE MELO            112495              06102023REA000000000000000000000000030900                    00000000000000000000000                    00000000048026417453                       
3410001300198A00000034100390 000000010985 8MICHAEL DOUGLAS DOS SANTOS ALV112497              06102023REA000000000000000000000000154700                    00000000000000000000000                    00000000039728593848                       
3410001300199A00000034108341 000000025970 6VALDECIR APARECIDO GONCALVES  112498              06102023REA000000000000000000000000156000                    00000000000000000000000                    00000000010312966890                       
3410001300200A00000034105917 000000004105 4JOSE CANDIDO                  112499              06102023REA000000000000000000000000216200                    00000000000000000000000                    00000000065413873620                       
3410001300201A00000034100390 000000012541 7ERIVAN SILVA ALVES            112500              06102023REA000000000000000000000000150500                    00000000000000000000000                    00000000009432283445                       
3410001300202A00000034100390 000000010875 1CELSO RICARDO DE JESUS        112502              06102023REA000000000000000000000000221500                    00000000000000000000000                    00000000024940310876                       
3410001300203A00000034109340 000000057892 2KELVIN LOPES DE ALMEIDA       112503              06102023REA000000000000000000000000150000                    00000000000000000000000                    00000000047114595883                       
3410001300204A00000034107486 000000017733 5VALDEIR OLIVEIRA SANTOS       112504              06102023REA000000000000000000000000155700                    00000000000000000000000                    00000000026072873839                       
3410001300205A00000034109340 000000064431 0JOSE CARLOS SILVA DOS SANTOS  112505              06102023REA000000000000000000000000209500                    00000000000000000000000                    00000000029493657876                       
3410001300206A00000034100390 000000010762 1ERIVANILDO BATISTA LOPES      112506              06102023REA000000000000000000000000288500                    00000000000000000000000                    00000000068691297468                       
3410001300207A00000034106733 000000032949 1VALDEIR PEREIRA DOS SANTOS    112507              06102023REA000000000000000000000000147600                    00000000000000000000000                    00000000022487718862                       
3410001300208A00000034109340 000000056823 8JOSE ANTONIO TAVARES DA SILVA 112508              06102023REA000000000000000000000000053200                    00000000000000000000000                    00000000012807676855                       
3410001300209A00000034100390 000000011947 7ERNALDO SOUSA DE JESUS        112510              06102023REA000000000000000000000000156800                    00000000000000000000000                    00000000004838171552                       
3410001300210A00000034105917 000000003702 9VALDEMIR CARNEIRO DE MOURA    112512              06102023REA000000000000000000000000151600                    00000000000000000000000                    00000000025187797875                       
3410001300211A00000034107486 000000017661 8JEFERSON JOSE ANDRADE DE SOUZA112513              06102023REA000000000000000000000000281200                    00000000000000000000000                    00000000040688126839                       
3410001300212A00000034102921 000000052742 6ERNANDES FLORENTINO SOARES    112514              06102023REA000000000000000000000000170400                    00000000000000000000000                    00000000011857416821                       
3410001300213A00000034106676 000000003005 6JORGE LUIZ LEITE OLIVEIRA     112515              06102023REA000000000000000000000000272100                    00000000000000000000000                    00000000031214601880                       
3410001300214A00000034105917 000000003896 9JOSE DE CASTRO OLIVEIRA       112517              06102023REA000000000000000000000000157000                    00000000000000000000000                    00000000006541349878                       
3410001300215A00000034107457 000000012882 0ERONILDO BATISTA DO NASCIMENTO112518              06102023REA000000000000000000000000340300                    00000000000000000000000                    00000000012602622869                       
3410001300216A00000034109104 000000020257 8ESPEDITO RODRIGUES DOS SANTOS 112520              06102023REA000000000000000000000000157600                    00000000000000000000000                    00000000011644643880                       
3410001300217A00000034105917 000000004112 0CELSON DUARTE                 112521              06102023REA000000000000000000000000167100                    00000000000000000000000                    00000000013461950807                       
3410001300218A00000034100641 000000015266 5ESPERIDIAO CORREIA DA SILVA   112522              06102023REA000000000000000000000000157000                    00000000000000000000000                    00000000008987395863                       
3410001300219A00000034100390 000000011501 2CHARLES MOREIRA DOS SANTOS    112525              06102023REA000000000000000000000000280600                    00000000000000000000000                    00000000039164939812                       
3410001300220A00000034106677 000000041652 8JOSE RAIMUNDO SILVA           112526              06102023REA000000000000000000000000154500                    00000000000000000000000                    00000000064388751391                       
3410001300221A00000034100668 000000006804 2CHRISTIAN ALVES SIQUEIRA DE OL112527              06102023REA000000000000000000000000252000                    00000000000000000000000                    00000000025453849843                       
3410001300222A00000034106677 000000041520 7ISRAEL DANTAS DOS SANTOS      112529              06102023REA000000000000000000000000157600                    00000000000000000000000                    00000000011698324820                       
3410001300223A00000034100390 000000011857 8CICERO ALVES DE MARIO         112530              06102023REA000000000000000000000000271400                    00000000000000000000000                    00000000032004679832                       
3410001300224A00000034106733 000000031125 9ITAMAR INACIO DA SILVA        112531              06102023REA000000000000000000000000157100                    00000000000000000000000                    00000000013235951806                       
3410001300225A00000034107867 000000027385 1CICERO ANTONIO FAUSTINO       112532              06102023REA000000000000000000000000166600                    00000000000000000000000                    00000000064162877491                       
3410001300226A00000034109104 000000020348 5CICERO APARECIDO DOS SANTOS   112533              06102023REA000000000000000000000000165400                    00000000000000000000000                    00000000045316236904                       
3410001300227A00000034100572 000000026330 9DAMIAO BEZERRA DE OLIVEIRA    112534              06102023REA000000000000000000000000178900                    00000000000000000000000                    00000000074835572491                       
3410001300228A00000034109340 000000057975 5CICERO BENEDITO DA SILVA      112535              06102023REA000000000000000000000000126500                    00000000000000000000000                    00000000034633960415                       
3410001300229A00000034100390 000000012603 5DAMIAO JOSE DA SILVA          112537              06102023REA000000000000000000000000042100                    00000000000000000000000                    00000000082870810334                       
3410001300230A00000034109106 000000034055 8CICERO DA SILVA COSTA         112538              06102023REA000000000000000000000000157600                    00000000000000000000000                    00000000078226228468                       
3410001300231A00000034109104 000000020363 4DAMIAO LIMA BISPO             112539              06102023REA000000000000000000000000045600                    00000000000000000000000                    00000000039877225840                       
3410001300232A00000034109106 000000033874 3DAMIAO RODRIGUES PITA         112540              06102023REA000000000000000000000000142100                    00000000000000000000000                    00000000002230343807                       
3410001300233A00000034109042 000000005396 8KLEBER JOSE OLIVEIRA DA SILVA 112542              06102023REA000000000000000000000000155600                    00000000000000000000000                    00000000044144139824                       
3410001300234A00000034102921 000000052730 1KLEBERSON JOSE DA SILVA       112545              06102023REA000000000000000000000000166800                    00000000000000000000000                    00000000016487669865                       
3410001300235A00000034108576 000000030116 5KLEBERT MARCOS DA SILVA FERREI112546              06102023REA000000000000000000000000470300                    00000000000000000000000                    00000000032568956895                       
3410001300236A00000034100390 000000010954 4AILTON CONCEICAO DA SILVA     112547              06102023REA000000000000000000000000157000                    00000000000000000000000                    00000000004584208590                       
3410001300237A00000034109340 000000056830 3CICERO LUIZ DA SILVA          112548              06102023REA000000000000000000000000062800                    00000000000000000000000                    00000000023220926819                       
3410001300238A00000034109106 000000033736 4AILTON JOSE DO NASCIMENTO     112549              06102023REA000000000000000000000000119200                    00000000000000000000000                    00000000052024407404                       
3410001300239A00000034109106 000000033387 6CICERO VIEIRA                 112551              06102023REA000000000000000000000000061400                    00000000000000000000000                    00000000044769807830                       
3410001300240A00000034106733 000000031164 8CLAUDEMIR DE ANDRADE FELICIANO112553              06102023REA000000000000000000000000101500                    00000000000000000000000                    00000000024903064808                       
3410001300241A00000034101684 000000033873 2CLAUDEMIRO PRATA DE ALMEIDA   112555              06102023REA000000000000000000000000126900                    00000000000000000000000                    00000000057336245668                       
3410001300242A00000034100390 000000011184 7CLAUDINEI MENDES DA SILVA     112557              06102023REA000000000000000000000000205200                    00000000000000000000000                    00000000004518213602                       
3410001300243A00000034109106 000000033369 4LEANDRO BARROSO DA SILVA      112558              06102023REA000000000000000000000000206400                    00000000000000000000000                    00000000037943837886                       
3410001300244A00000034109104 000000020603 3CLAUDINEI OLIVEIRA E SILVA    112559              06102023REA000000000000000000000000065700                    00000000000000000000000                    00000000011762450828                       
3410001300245A00000034109106 000000034232 3CLAUDIO DA SILVA ALVINO       112561              06102023REA000000000000000000000000045900                    00000000000000000000000                    00000000027753718843                       
3410001300246A00000034109106 000000034355 2CLAUDIO DE SOUZA              112563              06102023REA000000000000000000000000186800                    00000000000000000000000                    00000000012980432806                       
3410001300247A00000034105917 000000004103 9VALDIR BARBOSA FERREIRA       112566              06102023REA000000000000000000000000127000                    00000000000000000000000                    00000000057592632691                       
3410001300248A00000034105917 000000003898 5ALCIDES NEI JAIR INEZ         112567              06102023REA000000000000000000000000041100                    00000000000000000000000                    00000000012555255842                       
3410001300249A00000034100253 000000033463 5CLAUDIO MOREIRA DA SILVA      112568              06102023REA000000000000000000000000326100                    00000000000000000000000                    00000000016619901859                       
3410001300250A00000034106733 000000026959 8VALDIR BEZERRA DOS SANTOS     112569              06102023REA000000000000000000000000031000                    00000000000000000000000                    00000000029043671878                       
3410001300251A00000034109340 000000057982 1VALDIVIO RODRIGUES CRUZ       112573              06102023REA000000000000000000000000151300                    00000000000000000000000                    00000000011203705824                       
3410001300252A00000034106677 000000041625 4CLAYTON FERREIRA DE MELO      112576              06102023REA000000000000000000000000121900                    00000000000000000000000                    00000000034072000809                       
3410001300253A00000034109104 000000020523 3LEANDRO DA SILVA DONIZETE     112577              06102023REA000000000000000000000000119300                    00000000000000000000000                    00000000037402367878                       
3410001300254A00000034109106 000000033405 6MICHAEL JACKSON DE OLIVEIRA AL112578              06102023REA000000000000000000000000155800                    00000000000000000000000                    00000000042056747839                       
3410001300255A00000034100257 000000085035 4VANDERLEI ALEXANDRE DA SILVA  112579              06102023REA000000000000000000000000153500                    00000000000000000000000                    00000000011841264881                       
3410001300256A00000034109106 000000034142 4CLAYVES CRISTIANO DE JESUS    112581              06102023REA000000000000000000000000129800                    00000000000000000000000                    00000000024707254888                       
3410001300257A00000034102921 000000053901 7LEANDRO DE OLIVEIRA           112583              06102023REA000000000000000000000000267400                    00000000000000000000000                    00000000001572346655                       
3410001300258A00000034100390 000000010990 8EUZEMAR FRANCO DE LIMA        112586              06102023REA000000000000000000000000156600                    00000000000000000000000                    00000000012809719837                       
3410001300259A00000034109100 000000024543 1CLEBER GONCALVES DOS SANTOS   112587              06102023REA000000000000000000000000045500                    00000000000000000000000                    00000000034920703880                       
3410001300260A00000034100390 000000010956 9LEANDRO DE SOUSA CLAUDINO     112589              06102023REA000000000000000000000000286500                    00000000000000000000000                    00000000012228124443                       
3410001300261A00000034100390 000000010728 2EVACI FERREIRA DOS SANTOS     112590              06102023REA000000000000000000000000066300                    00000000000000000000000                    00000000037267217893                       
3410001300262A00000034105917 000000003833 2CLELIO ANDRADE ARAUJO         112594              06102023REA000000000000000000000000046100                    00000000000000000000000                    00000000003677608430                       
3410001300263A00000034109104 000000020304 8LEANDRO GARCIA CAMARGO        112596              06102023REA000000000000000000000000182900                    00000000000000000000000                    00000000041391680804                       
3410001300264A00000034105917 000000004035 3WALDIR PEREIRA SANTOS         112597              06102023REA000000000000000000000000155800                    00000000000000000000000                    00000000028028829880                       
3410001300265A00000034107486 000000001163 3EVALDO MOREIRA SANTOS         112598              06102023REA000000000000000000000000092000                    00000000000000000000000                    00000000071934243434                       
3410001300266A00000034101667 000000071577 3WALMIR ALVES DE SOUZA         112599              06102023REA000000000000000000000000145000                    00000000000000000000000                    00000000090058690549                       
3410001300267A00000034107486 000000017652 7EVALDO SILVA                  112602              06102023REA000000000000000000000000197500                    00000000000000000000000                    00000000029608344883                       
3410001300268A00000034109106 000000033372 8LEANDRO JOSE BATISTA          112604              06102023REA000000000000000000000000194700                    00000000000000000000000                    00000000027728458850                       
3410001300269A00000034101003 000000029837 7EVANDRO ANTONIO DA CUNHA      112606              06102023REA000000000000000000000000207000                    00000000000000000000000                    00000000076181820604                       
3410001300270A00000034106753 000000014781 5WELLINGTON TIAGO JESUS SANTOS 112607              06102023REA000000000000000000000000165200                    00000000000000000000000                    00000000037706951863                       
3410001300271A00000034109106 000000033418 9MICHEL ALBERTO LIMA DE SOUZA  112608              06102023REA000000000000000000000000288600                    00000000000000000000000                    00000000032921298856                       
3410001300272A00000034108341 000000025907 8EVANDRO RAMOS DA SILVA        112609              06102023REA000000000000000000000000167500                    00000000000000000000000                    00000000001222770822                       
3410001300273A00000034109106 000000033404 9CLERISTON BELAU DOS SANTOS    112610              06102023REA000000000000000000000000040200                    00000000000000000000000                    00000000007828821530                       
3410001300274A00000034106676 000000006083 0LEANDRO JOSE CORREIA DA SILVA 112611              06102023REA000000000000000000000000139200                    00000000000000000000000                    00000000010234208481                       
3410001300275A00000034100390 000000010761 3WELTON DOUGLAS RIBEIRO        112612              06102023REA000000000000000000000000150800                    00000000000000000000000                    00000000042032455838                       
3410001300276A00000034100078 000000038404 7CLEYTON DIAS MACHADO          112613              06102023REA000000000000000000000000150700                    00000000000000000000000                    00000000041949002861                       
3410001300277A00000034106733 000000030338 9WENSYLL SANTOS DE ARAUJO      112614              06102023REA000000000000000000000000150700                    00000000000000000000000                    00000000038995434830                       
3410001300278A00000034107486 000000017766 5MIGUEL JOSE DOS SANTOS        112615              06102023REA000000000000000000000000166600                    00000000000000000000000                    00000000083707476634                       
3410001300279A00000034100390 000000010860 3LEANDRO MENDES SILQUEIRA      112617              06102023REA000000000000000000000000156600                    00000000000000000000000                    00000000013366801646                       
3410001300280A00000034107486 000000016397 0WILLIAN ANDRADE LEAL          112618              06102023REA000000000000000000000000216200                    00000000000000000000000                    00000000030134637836                       
3410001300281A00000034106733 000000058940 9EVERSSON HENRIQUE CIPRIANO    112619              06102023REA000000000000000000000000146200                    00000000000000000000000                    00000000045444576880                       
3410001300282A00000034106429 000000021416 3CLOVES TAVARES DIAS           112620              06102023REA000000000000000000000000158800                    00000000000000000000000                    00000000066126533887                       
3410001300283A00000034106429 000000020567 4MIGUEL PEREIRA BARBOZA        112621              06102023REA000000000000000000000000154800                    00000000000000000000000                    00000000001176183818                       
3410001300284A00000034101684 000000045497 6LEANDRO SANTANA SANTOS        112625              06102023REA000000000000000000000000321900                    00000000000000000000000                    00000000034982767866                       
3410001300285A00000034106733 000000031120 0WILLIAM LIMA SILVA            112626              06102023REA000000000000000000000000100600                    00000000000000000000000                    00000000039704373856                       
3410001300286A00000034100738 000000028257 3WILLIAN CARDOSO DA SILVA      112628              06102023REA000000000000000000000000147700                    00000000000000000000000                    00000000011549804480                       
3410001300287A00000034103169 000000005668 0EXPEDITO FERREIRA DA SILVA    112629              06102023REA000000000000000000000000157300                    00000000000000000000000                    00000000019673339805                       
3410001300288A00000034100746 000000014507 7LEANDRO SARAGOCA PEREIRA      112630              06102023REA000000000000000000000000171700                    00000000000000000000000                    00000000041185505806                       
3410001300289A00000034100390 000000012552 4AILTON DE JESUS               112632              06102023REA000000000000000000000000127300                    00000000000000000000000                    00000000019758367587                       
3410001300290A00000034109104 000000020671 0COSMA LIBERATO DE OLIVEIRA    112634              06102023REA000000000000000000000000151700                    00000000000000000000000                    00000000034455806857                       
3410001300291A00000034105917 000000003873 8MILTON DA SILVA REIS          112635              06102023REA000000000000000000000000157200                    00000000000000000000000                    00000000007301326840                       
3410001300292A00000034100390 000000013145 6FABIANO CHAGAS MACIEL         112638              06102023REA000000000000000000000000145600                    00000000000000000000000                    00000000022453437860                       
3410001300293A00000034109104 000000020344 4ROMILDO FREITAS DOS SANTOS    112639              06102023REA000000000000000000000000157000                    00000000000000000000000                    00000000092662366591                       
3410001300294A00000034109340 000000057933 4LEANDRO YASSUNORI DE OLIVEIRA 112640              06102023REA000000000000000000000000227600                    00000000000000000000000                    00000000022367120811                       
3410001300295A00000034101634 000000067828 6AIRTON COSTA                  112641              06102023REA000000000000000000000000101100                    00000000000000000000000                    00000000019181651813                       
3410001300296A00000034107486 000000017697 2FABIANO LANDIM DA ROCHA       112643              06102023REA000000000000000000000000281600                    00000000000000000000000                    00000000030823325873                       
3410001300297A00000034109106 000000033450 2ALBERICO DA SILVA BRANDAO     112646              06102023REA000000000000000000000000110100                    00000000000000000000000                    00000000085676756420                       
3410001300298A00000034109340 000000051432 3LEMUEL DE OLIVEIRA BRANDAO    112649              06102023REA000000000000000000000000150200                    00000000000000000000000                    00000000017623245805                       
3410001300299A00000034106677 000000041594 2FABIANO PEREIRA DE OLIVEIRA SA112650              06102023REA000000000000000000000000135900                    00000000000000000000000                    00000000024855959847                       
3410001300300A00000034102921 000000052894 5ALCIDES JOSE DOS SANTOS       112652              06102023REA000000000000000000000000040900                    00000000000000000000000                    00000000072556501472                       
3410001300301A00000034108756 000000013125 9FABIO CESAR DE OLIVEIRA SOUZA 112654              06102023REA000000000000000000000000221000                    00000000000000000000000                    00000000097112887453                       
3410001300302A00000034101546 000000079129 2ALDO DOS SANTOS ORESTES       112656              06102023REA000000000000000000000000185600                    00000000000000000000000                    00000000027015615827                       
3410001300303A00000034100390 000000012609 2MILTON HONORIO DA SILVA       112659              06102023REA000000000000000000000000157000                    00000000000000000000000                    00000000018300589830                       
3410001300304A00000034108485 000000035282 0FABIO DA SILVA ALVES ROLIM    112661              06102023REA000000000000000000000000127100                    00000000000000000000000                    00000000023081789818                       
3410001300305A00000034109104 000000021434 2ALESSANDRA SANTOSTASI TEIXEIRA112664              06102023REA000000000000000000000000130400                    00000000000000000000000                    00000000019107651805                       
3410001300306A00000034101684 000000045103 0RONALDO SILVA SANTOS          112666              06102023REA000000000000000000000000124600                    00000000000000000000000                    00000000034932722869                       
3410001300307A00000034108485 000000024043 9LEONARDO NASCIMENTO ALVES     112667              06102023REA000000000000000000000000188200                    00000000000000000000000                    00000000049801079827                       
3410001300308A00000034107867 000000006863 2FABIO DA SILVA DUARTE         112668              06102023REA000000000000000000000000034400                    00000000000000000000000                    00000000028932955840                       
3410001300309A00000034109104 000000020209 9MISSIMEIRE FERREIRA LIMA DOS S112669              06102023REA000000000000000000000000143200                    00000000000000000000000                    00000000035728735843                       
3410001300310A00000034108887 000000000738 6ROSANGELA OLIVEIRA LIMA       112674              06102023REA000000000000000000000000180600                    00000000000000000000000                    00000000040195615832                       
3410001300311A00000034100390 000000010858 7MOACY GONCALVES DE OLIVEIRA   112675              06102023REA000000000000000000000000155800                    00000000000000000000000                    00000000027048415860                       
3410001300312A00000034107660 000000028904 7LEONARDO PEREIRA DA SILVA     112677              06102023REA000000000000000000000000257800                    00000000000000000000000                    00000000029028484809                       
3410001300313A00000034109104 000000020316 2SUELI APARECIDA DOS SANTOS    112678              06102023REA000000000000000000000000150000                    00000000000000000000000                    00000000017145486865                       
3410001300314A00000034100390 000000011582 2FABIO FERREIRA DO NASCIMENTO  112680              06102023REA000000000000000000000000266800                    00000000000000000000000                    00000000032499123877                       
3410001300315A00000034109106 000000034245 5MOISES GOMES RODRIGUES        112681              06102023REA000000000000000000000000119700                    00000000000000000000000                    00000000027082774800                       
3410001300316A00000034105917 000000003846 4LEONDINEI VAZ                 112682              06102023REA000000000000000000000000159200                    00000000000000000000000                    00000000025358972889                       
3410001300317A00000034109104 000000020472 3ZELITA GALDINO DA SILVA       112683              06102023REA000000000000000000000000041800                    00000000000000000000000                    00000000011438913842                       
3410001300318A00000034100390 000000012562 3LEONIDAS CORTES DOS SANTOS    112684              06102023REA000000000000000000000000157400                    00000000000000000000000                    00000000000947611592                       
3410001300319A00000034109104 000000020352 7ZILDA CANDIDO DA SILVA        112685              06102023REA000000000000000000000000142800                    00000000000000000000000                    00000000008800215866                       
3410001300320A00000034109106 000000034351 1RUBENS ALVES DA ROCHA         112686              06102023REA000000000000000000000000207200                    00000000000000000000000                    00000000013024925864                       
3410001300321A00000034109106 000000033914 7LESSIO RENOR DE FREITAS       112687              06102023REA000000000000000000000000157600                    00000000000000000000000                    00000000073463310600                       
3410001300322A00000034109104 000000020296 6LETICIA FERREIRA DOS SANTOS   112690              06102023REA000000000000000000000000079300                    00000000000000000000000                    00000000030112955819                       
3410001300323A00000034102949 000000049171 2ALESSANDRE DE OLIVEIRA SILVA  112691              06102023REA000000000000000000000000222300                    00000000000000000000000                    00000000000288830555                       
3410001300324A00000034105917 000000003866 2MOISES SANTOS NOGUEIRA        112692              06102023REA000000000000000000000000157000                    00000000000000000000000                    00000000035794355824                       
3410001300325A00000034101003 000000081603 8LOURIVAL CALADO DA SILVA      112693              06102023REA000000000000000000000000148400                    00000000000000000000000                    00000000026181086803                       
3410001300326A00000034100390 000000011281 1LOURIVAL IDELFONSO            112694              06102023REA000000000000000000000000153500                    00000000000000000000000                    00000000028712360899                       
3410001300327A00000034109340 000000057907 8ALESSANDRO ARRUDA DE OLIVEIRA 112697              06102023REA000000000000000000000000153500                    00000000000000000000000                    00000000036641859860                       
3410001300328A00000034109104 000000020350 1SAMUEL BATISTA DE SOUZA       112698              06102023REA000000000000000000000000167200                    00000000000000000000000                    00000000004742106857                       
3410001300329A00000034109104 000000020262 8LOURIVAL VALENTIM             112699              06102023REA000000000000000000000000166200                    00000000000000000000000                    00000000007693020845                       
3410001300330A00000034106733 000000029999 1ALESSANDRO DE JESUS SILVA     112700              06102023REA000000000000000000000000156400                    00000000000000000000000                    00000000039910169827                       
3410001300331A00000034103170 000000005408 8NAILTON VIEIRA DOS SANTOS     112703              06102023REA000000000000000000000000157600                    00000000000000000000000                    00000000016944846888                       
3410001300332A00000034101003 000000081651 7SAMUEL NOGUEIRA SANTANA       112704              06102023REA000000000000000000000000211600                    00000000000000000000000                    00000000034455631879                       
3410001300333A00000034108495 000000019254 7SEBASTIAO GOMES DA SILVA      112706              06102023REA000000000000000000000000192200                    00000000000000000000000                    00000000034640703449                       
3410001300334A00000034106429 000000020572 4SERGIO DA SILVA               112707              06102023REA000000000000000000000000205300                    00000000000000000000000                    00000000037956764874                       
3410001300335A00000034100360 000000061010 9FABIO JULIO FRANCISCO LUZ DA S112709              06102023REA000000000000000000000000241100                    00000000000000000000000                    00000000029608435846                       
3410001300336A00000034100390 000000012570 6FABIO JUNIOR DOS SANTOS COSTA 112713              06102023REA000000000000000000000000340300                    00000000000000000000000                    00000000008739052451                       
3410001300337A00000034109104 000000020265 1SEVERINO ALEXANDRE DA SILVA   112714              06102023REA000000000000000000000000182300                    00000000000000000000000                    00000000088101304487                       
3410001300338A00000034106429 000000020585 6FABIO MIRANDA SILVA           112716              06102023REA000000000000000000000000157000                    00000000000000000000000                    00000000011449528830                       
3410001300339A00000034102921 000000052790 5SEVERINO ISIDIO DA SILVA      112717              06102023REA000000000000000000000000257800                    00000000000000000000000                    00000000026891475805                       
3410001300340A00000034109340 000000057889 8NELSON BARBOSA                112718              06102023REA000000000000000000000000157500                    00000000000000000000000                    00000000092770096753                       
3410001300341A00000034108331 000000005048 7ALEX APARECIDO DOS SANTOS     112719              06102023REA000000000000000000000000276600                    00000000000000000000000                    00000000038402827802                       
3410001300342A00000034109104 000000020337 8FABIO OLIVEIRA DOS ANJOS      112720              06102023REA000000000000000000000000156400                    00000000000000000000000                    00000000022705045856                       
3410001300343A00000034106429 000000021331 4SIDNEY CUNHA DE MIRANDA       112722              06102023REA000000000000000000000000140800                    00000000000000000000000                    00000000016338288835                       
3410001300344A00000034109106 000000034138 2FABIO PEREIRA BARROS          112724              06102023REA000000000000000000000000093000                    00000000000000000000000                    00000000011502000814                       
3410001300345A00000034109104 000000020196 8SILVIO BATISTA DE LIRA        112725              06102023REA000000000000000000000000156500                    00000000000000000000000                    00000000012958463818                       
3410001300346A00000034108485 000000007695 7ALEX DE FIGUEIREDO COSTA      112726              06102023REA000000000000000000000000257100                    00000000000000000000000                    00000000006030362364                       
3410001300347A00000034109104 000000020707 2SIVALDO DIAS MACHADO          112727              06102023REA000000000000000000000000105200                    00000000000000000000000                    00000000057141924515                       
3410001300348A00000034106676 000000005212 6NELSON DE OLIVEIRA            112731              06102023REA000000000000000000000000156400                    00000000000000000000000                    00000000083855971404                       
3410001300349A00000034109106 000000033921 2LUCAS DA SILVA LEITE          112732              06102023REA000000000000000000000000145200                    00000000000000000000000                    00000000051809865832                       
3410001300350A00000034100641 000000015275 6TIAGO MACHADO CARDOZO         112733              06102023REA000000000000000000000000193000                    00000000000000000000000                    00000000037461304844                       
3410001300351A00000034103169 000000005655 7FABIO ROBERTO SILVA           112737              06102023REA000000000000000000000000039600                    00000000000000000000000                    00000000013617136826                       
3410001300352A00000034101667 000000071594 8ROBSON RODRIGUES DO CARMO     112741              06102023REA000000000000000000000000157000                    00000000000000000000000                    00000000011700719882                       
3410001300353A00000034102921 000000052679 0FABIO SANTOS SALES            112742              06102023REA000000000000000000000000282200                    00000000000000000000000                    00000000041801074810                       
3410001300354A00000034103100 000000016480 9NELSON ROBERTO RIBEIRO DA SILV112744              06102023REA000000000000000000000000192900                    00000000000000000000000                    00000000009470607821                       
3410001300355A00000034106753 000000018546 8FABRICIO DA COSTA GOMES       112745              06102023REA000000000000000000000000237700                    00000000000000000000000                    00000000044346968821                       
3410001300356A00000034108341 000000029297 0ROBSON ROCHA GONCALVES        112747              06102023REA000000000000000000000000202800                    00000000000000000000000                    00000000024864321833                       
3410001300357A00000034101003 000000090638 3LUCAS GONCALVES DOS SANTOS    112748              06102023REA000000000000000000000000148800                    00000000000000000000000                    00000000023682375856                       
3410001300358A00000034109104 000000020339 4FAUSTINIANO MONTEIRO MAGALHAES112749              06102023REA000000000000000000000000157200                    00000000000000000000000                    00000000011625812809                       
3410001300359A00000034108341 000000025925 0FAUSTINO ARNALDO DE LANA      112753              06102023REA000000000000000000000000347300                    00000000000000000000000                    00000000019184260823                       
3410001300360A00000034106753 000000023761 6ROBERTO XAVIER FIALHO         112754              06102023REA000000000000000000000000156400                    00000000000000000000000                    00000000013580726803                       
3410001300361A00000034106429 000000020548 4FAUSTO ALVES DE ALMEIDA       112757              06102023REA000000000000000000000000082900                    00000000000000000000000                    00000000007336352618                       
3410001300362A00000034106429 000000021335 5UILTON SILVA DOS ANJOS SANTOS 112759              06102023REA000000000000000000000000248900                    00000000000000000000000                    00000000000935390537                       
3410001300363A00000034107867 000000034469 4NILSON DE FARIA               112761              06102023REA000000000000000000000000167000                    00000000000000000000000                    00000000002281532801                       
3410001300364A00000034106429 000000020541 9ALEX SANDRO PEREIRA DOS SANTOS112763              06102023REA000000000000000000000000285300                    00000000000000000000000                    00000000028549854867                       
3410001300365A00000034106368 000000012608 9FELIPE FIGUEIREDO DA SILVA    112764              06102023REA000000000000000000000000286800                    00000000000000000000000                    00000000032206741865                       
3410001300366A00000034109104 000000020293 3NILSON MUNIZ SILVA            112765              06102023REA000000000000000000000000167200                    00000000000000000000000                    00000000010448954893                       
3410001300367A00000034105917 000000003856 3FERNANDO ALVES DE SOUSA       112766              06102023REA000000000000000000000000144100                    00000000000000000000000                    00000000032288543884                       
3410001300368A00000034105917 000000003871 2FERNANDO ANTONIO DA SILVA     112768              06102023REA000000000000000000000000206400                    00000000000000000000000                    00000000023378787830                       
3410001300369A00000034102921 000000052670 9ROBERTO PEDRETE MAIA          112769              06102023REA000000000000000000000000178500                    00000000000000000000000                    00000000022678569802                       
3410001300370A00000034106429 000000020561 7LUCAS SOUSA GAMA              112771              06102023REA000000000000000000000000269100                    00000000000000000000000                    00000000004534937504                       
3410001300371A00000034109042 000000003495 0NILSON ROBERTO GALVAO         112772              06102023REA000000000000000000000000190200                    00000000000000000000000                    00000000028790029828                       
3410001300372A00000034106733 000000031210 9IZAIAS MOREIRA DA COSTA       112774              06102023REA000000000000000000000000150400                    00000000000000000000000                    00000000016511593860                       
3410001300373A00000034109104 000000020468 1LUCIANA DE SOUZA EVANGELISTA D112775              06102023REA000000000000000000000000188100                    00000000000000000000000                    00000000033370972867                       
3410001300374A00000034109104 000000020325 3VALDECY ALVES                 112776              06102023REA000000000000000000000000183500                    00000000000000000000000                    00000000013320403818                       
3410001300375A00000034108846 000000032088 8ROBERTO MACHADO ARAUJO        112778              06102023REA000000000000000000000000153500                    00000000000000000000000                    00000000081165951304                       
3410001300376A00000034109104 000000020178 6VALDEMIR GOMES LEMES          112779              06102023REA000000000000000000000000110500                    00000000000000000000000                    00000000022377275893                       
3410001300377A00000034106753 000000023776 4NILSON RODRIGUES DE JESUS     112780              06102023REA000000000000000000000000139900                    00000000000000000000000                    00000000014693055859                       
3410001300378A00000034101681 000000021200 5LUCIANO ALCIDES MOTA          112781              06102023REA000000000000000000000000205800                    00000000000000000000000                    00000000026064190817                       
3410001300379A00000034106753 000000020530 8VALDEMIR LEITE FERREIRA       112782              06102023REA000000000000000000000000173300                    00000000000000000000000                    00000000028690112880                       
3410001300380A00000034100390 000000010740 7NILTON DA COSTA LEAL          112785              06102023REA000000000000000000000000156600                    00000000000000000000000                    00000000005609103630                       
3410001300381A00000034109104 000000020459 0VALDICK SOUZA DE JESUS        112786              06102023REA000000000000000000000000145800                    00000000000000000000000                    00000000062322419591                       
3410001300382A00000034108341 000000025540 7ROBERTO LUIZ DOS SANTOS SILVA 112788              06102023REA000000000000000000000000332700                    00000000000000000000000                    00000000002235384854                       
3410001300383A00000034106677 000000041658 5JAIR LUIZ DOS SANTOS          112789              06102023REA000000000000000000000000157800                    00000000000000000000000                    00000000013463545888                       
3410001300384A00000034106429 000000021394 2ALEXANDRE FERREIRA DA SILVA   112793              06102023REA000000000000000000000000155800                    00000000000000000000000                    00000000035517326803                       
3410001300385A00000034100390 000000010713 4VALMIR GOMES DE FREITAS       112795              06102023REA000000000000000000000000423000                    00000000000000000000000                    00000000002832563899                       
3410001300386A00000034101681 000000021109 8COSME GALDINO DA SILVA        112797              06102023REA000000000000000000000000045600                    00000000000000000000000                    00000000084424192415                       
3410001300387A00000034107245 000000001770 7ALEXANDRE PEREIRA DA SILVA    112798              06102023REA000000000000000000000000143100                    00000000000000000000000                    00000000022355382824                       
3410001300388A00000034105917 000000003888 6FERNANDO JESUS DO CARMO       112799              06102023REA000000000000000000000000143600                    00000000000000000000000                    00000000051199780880                       
3410001300389A00000034102921 000000051455 6VANDERSON BEZERRA ALVES SANTOS112801              06102023REA000000000000000000000000367200                    00000000000000000000000                    00000000032986935885                       
3410001300390A00000034100641 000000015293 9NILTON PASSOS DOS SANTOS      112802              06102023REA000000000000000000000000287400                    00000000000000000000000                    00000000008972544736                       
3410001300391A00000034109104 000000020701 5LUCIANO GOUVEIA BARBOZA       112803              06102023REA000000000000000000000000161700                    00000000000000000000000                    00000000044221291800                       
3410001300392A00000034105917 000000003862 1ALEXANDRE SILVA RAMOS         112804              06102023REA000000000000000000000000049000                    00000000000000000000000                    00000000022520121882                       
3410001300393A00000034102921 000000052669 1ZENIL SANTANA DE AGUIAR       112805              06102023REA000000000000000000000000488000                    00000000000000000000000                    00000000015196049800                       
3410001300394A00000034101634 000000029216 1LUCIANO HENRIQUE REIS DAMACENA112809              06102023REA000000000000000000000000097900                    00000000000000000000000                    00000000035393755899                       
3410001300395A00000034103052 000000016788 3NILTON PEREIRA GARCIA         112810              06102023REA000000000000000000000000183300                    00000000000000000000000                    00000000013459232870                       
3410001300396A00000034106733 000000057920 2ROBERTO BERNARDO RODRIGUES    112811              06102023REA000000000000000000000000091000                    00000000000000000000000                    00000000003074393807                       
3410001300397A00000034107660 000000002510 2ALEXSANDRO NOGUEIRA DE SANTANA112812              06102023REA000000000000000000000000281300                    00000000000000000000000                    00000000097316245549                       
3410001300398A00000034100390 000000010814 0LUCIANO SILVA DE OLIVEIRA     112813              06102023REA000000000000000000000000156300                    00000000000000000000000                    00000000050107375826                       
3410001300399A00000034108495 000000019219 0VALDIR RODRIGUES DOS ANJOS    112814              06102023REA000000000000000000000000182300                    00000000000000000000000                    00000000004093878510                       
3410001300400A00000034100390 000000015348 4ALEXSANDRO SOARES CORREA      112815              06102023REA000000000000000000000000154500                    00000000000000000000000                    00000000022521641820                       
3410001300401A00000034100641 000000015206 1NILTON SANTOS DA SILVA        112816              06102023REA000000000000000000000000206400                    00000000000000000000000                    00000000016811195878                       
3410001300402A00000034103247 000000055025 8FLAVIO FIGUEREDO DOS SANTOS   112818              06102023REA000000000000000000000000273800                    00000000000000000000000                    00000000022676543857                       
3410001300403A00000034100390 000000011412 2VANDERLEY SALDANHA PEIXOTO    112820              06102023REA000000000000000000000000089400                    00000000000000000000000                    00000000045887071320                       
3410001300404A00000034108485 000000020486 4DANIEL BONIFACIO              112821              06102023REA000000000000000000000000288300                    00000000000000000000000                    00000000029422390850                       
3410001300405A00000034107486 000000017678 2ROBERTA CRISTINA DOS SANTOS AM112823              06102023REA000000000000000000000000169500                    00000000000000000000000                    00000000036889619862                       
3410001300406A00000034107867 000000027340 6ALICIO SILVA DE ADORNO        112824              06102023REA000000000000000000000000119500                    00000000000000000000000                    00000000008554912802                       
3410001300407A00000034107887 000000004119 7ECLYTON MYCAEL FERREIRA LOPES 112825              06102023REA000000000000000000000000280500                    00000000000000000000000                    00000000042097198899                       
3410001300408A00000034106733 000000037335 8DANIEL DA CUNHA PUPO          112827              06102023REA000000000000000000000000207000                    00000000000000000000000                    00000000032733597817                       
3410001300409A00000034105917 000000003674 0FLAVIO RODRIGUES JOAQUIM      112829              06102023REA000000000000000000000000287100                    00000000000000000000000                    00000000036396432838                       
3410001300410A00000034106429 000000021359 5ED CARLOS BARBOSA ALVES       112830              06102023REA000000000000000000000000047300                    00000000000000000000000                    00000000033824753839                       
3410001300411A00000034108485 000000020532 5FRANCIMARIO FERREIRA ANTUNES  112832              06102023REA000000000000000000000000205500                    00000000000000000000000                    00000000017958620845                       
3410001300412A00000034106677 000000041519 9NIVALDO SEPERO DOS SANTOS     112833              06102023REA000000000000000000000000166700                    00000000000000000000000                    00000000008569801882                       
