00                                                   1133572312000129CONSORCIO SCK                 Andre Fernandes BacaRua PERIPERI 62                                   VILA SOCORRO        04760060SAO PAULO           SP001120789191andre.fernandes@cscempresas.com.br                          2023091501         1               153496907000150                  *
10133572312000129000000000000000000000000000000000000CONSORCIO SCK                           Rua PERIPERI 62                                   VILA SOCORRO        04760060SAO PAULO           SP001120789191N8129000P300151501152100     000000000000000000000000000000000000000000000000000000000000                000000000000000000000000000000000000000000000    *
12133572312000129000000000000000000000000000000000000000000000000000000000000000000 000000000000000000000000000000                                000000000000000            000000000000000000000000000000000000000000000000000000000000000000000000000000000000000000000000000000000000000000000000000000000000000000000000000000000000000000000000000000000000      *
20133572312000129115359708000100000000000000000000000Autoridade Municipal de Limpeza Urbana  Rua Azurita 100                                   Caninde             03034050Sao Paulo           SP    000000001192611000000000000000000000000000000000000059333568000000000000000000000000000000000000000000000000000000000000                                          *
21133572312000129115359708000100000000000000000000000000000000000000            000000000000000000000000000000000000000000000000000000000000000000000000000                                                                                                                                                                                                            *
30133572312000129115359708000100102529729180106201901PEDRO FLAVIO FERREIRA DA SILVA                                        00000113436001431300495010620190603194705142000000000186799000000000000000    000000000000000000000000000000000000000000000000000000000000                                                                                                  *
30133572312000129115359708000100102620844970106201901JOAO BATISTA DOS SANTOS                                               00000112341005280000050010620192603195805142000000000212931000000000000000    000000000000000000000000000000000000000000000000000000000000                                                                                                  *
30133572312000129115359708000100103899011610106201901MARIA APARECIDA RIBEIRO DIAS                                          00000112193001622700075010620193011195505142000000000187365000000000000000    000000000000000000000000000000000000000000000000000000000000                                                                                                  *
30133572312000129115359708000100103941401730106201901CLOVES TAVARES DIAS                                                   00000112620007917700286010620190103195105142000000000173599000000000000000    000000000000000000000000000000000000000000000000000000000000                                                                                                  *
30133572312000129115359708000100105526181330106201901JOSE DARIO DE MEDEIROS                                                00000112940004182303535010620191004194805142000000000186799000000000000000    000000000000000000000000000000000000000000000000000000000000                                                                                                  *
30133572312000129115359708000100105528164660106201901MARIO FERREIRA PACHECO                                                00000112306000832600467010620191312195705142000000000186799000000000000000    000000000000000000000000000000000000000000000000000000000000                                                                                                  *
30133572312000129115359708000100105583591990106201901JOSE EDELSON REIS                                                     00000113637000670200143010620193007195907825000000000330217000000000000000    000000000000000000000000000000000000000000000000000000000000                                                                                                  *
30133572312000129115359708000100105592116910106201901JOSE GILBERTO DA SILVA                                                00000113366003354100130010620193105195305142000000000186799000000000000000    000000000000000000000000000000000000000000000000000000000000                                                                                                  *
30133572312000129115359708000100106030382280106201901AMARO NIVALDO PLINIO                                                  00000113109000877800388010620190808195109922000000000242472000000000000000    000000000000000000000000000000000000000000000000000000000000                                                                                                  *
30133572312000129115359708000100106092748370106201901ELOI ALENCAR MATIAS                                                   00000112366004854900045010620190112195907825000000000393684000000000000000    000000000000000000000000000000000000000000000000000000000000                                                                                                  *
30133572312000129115359708000100106095707620106201901EVANDRO RAMOS DA SILVA                                                00000112609009824600007010620191006195405142000000000186799000000000000000    000000000000000000000000000000000000000000000000000000000000                                                                                                  *
30133572312000129115359708000100106142274180106201901JOSE ADAO RODRIGUES                                                   00000112315006686300070010620191709195705142000000000186799000000000000000    000000000000000000000000000000000000000000000000000000000000                                                                                                  *
30133572312000129115359708000100106188949900106201901ELIAS FERREIRA DOS SANTOS                                             00000113656001834100108010620190507195405142000000000221362000000000000000    000000000000000000000000000000000000000000000000000000000000                                                                                                  *
30133572312000129115359708000100106484721800106201901MARCOS PEREIRA MARINHO                                                00000113324006289500419010620190910196005142000000000186799000000000000000    000000000000000000000000000000000000000000000000000000000000                                                                                                  *
30133572312000129115359708000100106641733700106201901CICERO ANTONIO FAUSTINO                                               00000112532007858700388010620191511195905142000000000186799000000000000000    000000000000000000000000000000000000000000000000000000000000                                                                                                  *
30133572312000129115359708000100106672483200106201901ANTONIO DE LIMA RIBEIRO                                               00000113490008371300594010620190701196009144000000000446605000000000000000    000000000000000000000000000000000000000000000000000000000000                                                                                                  *
30133572312000129115359708000100106732077970106201901GLEIDSTON BANDEIRA DA SILVA                                           00000113357005740700121010620192805195905142000000000186799000000000000000    000000000000000000000000000000000000000000000000000000000000                                                                                                  *
30133572312000129115359708000100106734786180106201901EDSON BRAZ DA SILVA FILHO                                             00000113548001712500621010620191305196005142000000000173315000000000000000    000000000000000000000000000000000000000000000000000000000000                                                                                                  *
30133572312000129115359708000100106873366080106201901JOAO VICENTE NETO                                                     00000113056005944400460010620191709195405142000000000186799000000000000000    000000000000000000000000000000000000000000000000000000000000                                                                                                  *
30133572312000129115359708000100106937126590106201901JOAQUIM INACIO DE BRITO FILHO                                         00000112307005168200172010620192907195605142000000000186799000000000000000    000000000000000000000000000000000000000000000000000000000000                                                                                                  *
30133572312000129115359708000100107020573520106201901JOSE FERREIRA DA SILVA                                                00000112946008251600134010620191107196005142000000000186799000000000000000    000000000000000000000000000000000000000000000000000000000000                                                                                                  *
30133572312000129115359708000100107050827811206202301WALDIR ANTONIO MARTINS                                                00000122234039845900843120620232006196207825000000000328560000000000000000    000000000000000000000000000000000000000000000000000000000000                                                                                                  *
30133572312000129115359708000100107051079890106201901IVANILDO JOSE DE FREITAS                                              00000112178000816100463010620190108196005142000000000172770000000000000000    000000000000000000000000000000000000000000000000000000000000                                                                                                  *
30133572312000129115359708000100107096927110306201901ROBERTO CARLOS DA SILVA                                               00000113733007645000006030620192502196605112000000000833273000000000000000    000000000000000000000000000000000000000000000000000000000000                                                                                                  *
30133572312000129115359708000100107159163080106201901GERSON CAETANO DO NASCIMENTO                                          00000113225000044104546010620191612196005142000000000201616000000000000000    000000000000000000000000000000000000000000000000000000000000                                                                                                  *
30133572312000129115359708000100107231295810106201901ROBERTO LUIZ DOS SANTOS SILVA                                         00000112788002333800214010620192607195809921000000000389984000000000000000    000000000000000000000000000000000000000000000000000000000000                                                                                                  *
30133572312000129115359708000100107299042770106201901MIGUEL PEREIRA BARBOZA                                                00000112621008215800468010620191004195605142000000000173599000000000000000    000000000000000000000000000000000000000000000000000000000000                                                                                                  *
30133572312000129115359708000100107356973260106201901JOAQUIM BATISTA DE OLIVEIRA                                           00000113377003847100449010620193007195405142000000000221335000000000000000    000000000000000000000000000000000000000000000000000000000000                                                                                                  *
30133572312000129115359708000100107401555950106201901VALMIR GOMES DE FREITAS                                               00000112795003646800010010620191301196305112000000000642755000000000000000    000000000000000000000000000000000000000000000000000000000000                                                                                                  *
30133572312000129115359708000100107560439290106201901JOAO MARTINS DE SOBRAL                                                00000112245009431300328010620192905196005142000000000186799000000000000000    000000000000000000000000000000000000000000000000000000000000                                                                                                  *
30133572312000129115359708000100107583044870106201901JOAN NUNES GOMES                                                      00000112909005777100017010620190208195805142000000000186799000000000000000    000000000000000000000000000000000000000000000000000000000000                                                                                                  *
30133572312000129115359708000100107584000440106201901PAULO ROBERTO DA SILVA                                                00000113356002185600002010620191111195705142000000000173599000000000000000    000000000000000000000000000000000000000000000000000000000000                                                                                                  *
30133572312000129115359708000100107634632100106201901ROBERTO BERNARDO RODRIGUES                                            00000112811006252900152010620192010195807825000000000405067000000000000000    000000000000000000000000000000000000000000000000000000000000                                                                                                  *
30133572312000129115359708000100107713710520106201901EDVALDO ALVES                                                         00000113603009524400437010620191001196109922000000000243579000000000000000    000000000000000000000000000000000000000000000000000000000000                                                                                                  *
30133572312000129115359708000100107744021610106201901MANOEL BELARMINO DA SILVA                                             00000113106007351300445010620191902195105142000000000220250000000000000000    000000000000000000000000000000000000000000000000000000000000                                                                                                  *
30133572312000129115359708000100107763668980106201901PAULO AQUINO TAVARES DE ARRUDA                                        00000113201000624900006010620190306195805142000000000186799000000000000000    000000000000000000000000000000000000000000000000000000000000                                                                                                  *
30133572312000129115359708000100107792891690106201901JOSE RONILTON DOS SANTOS                                              00000112227000475100167010620190904196105142000000000171382000000000000000    000000000000000000000000000000000000000000000000000000000000                                                                                                  *
30133572312000129115359708000100107794275290406201901JUARES ANTONIO DA SILVA                                               00000112384004665800576040620192512196207825000000000324477000000000000000    000000000000000000000000000000000000000000000000000000000000                                                                                                  *
30133572312000129115359708000100107796189520106201901PEDRO LUIZ DA SILVA                                                   00000113463007904300465010620190705196005142000000000124533000000000141027    000000000000000000000000000000000000000141027000000000000000                                                                                                  *
32133572312000129115359708000100107796189520106201901PEDRO LUIZ DA SILVA                                                   J 20092023                                                                                                                                                                                                                                  *
30133572312000129115359708000100107814725010106201901AFONSO CIMINIO                                                        00000112419004548100046010620190611196005142000000000186799000000000000000    000000000000000000000000000000000000000000000000000000000000                                                                                                  *
30133572312000129115359708000100107829065130106201901MARCOS TADEU NERI                                                     00000113342000015400084010620192811196005142000000000173599000000000000000    000000000000000000000000000000000000000000000000000000000000                                                                                                  *
30133572312000129115359708000100107835475841412201901LUCIANO FRANCISCO DOS SANTOS                                          00000114527130843300859141220192703196105142000000000223092000000000000000    000000000000000000000000000000000000000000000000000000000000                                                                                                  *
30133572312000129115359708000100107862195610106201901CELSON DUARTE                                                         00000112521003289200032010620192407195805142000000000186799000000000000000    000000000000000000000000000000000000000000000000000000000000                                                                                                  *
30133572312000129115359708000100108112769850106201901CARLOS DOS SANTOS                                                     00000112184030777800439010620192307196205142000000000186799000000000000000    000000000000000000000000000000000000000000000000000000000000                                                                                                  *
30133572312000129115359708000100108146649860106201901JOSE FONSECA DE SOUZA                                                 00000113362006327300012010620190407195805142000000000186799000000000000000    000000000000000000000000000000000000000000000000000000000000                                                                                                  *
30133572312000129115359708000100108250144060106201901MANOEL MESSIAS DA CONCEICAO                                           00000113146001255200055010620190807196205142000000000186799000000000000000    000000000000000000000000000000000000000000000000000000000000                                                                                                  *
30133572312000129115359708000100108256512280106201901SAMUEL BATISTA DE SOUZA                                               00000112698000888800571010620191207196305142000000000186799000000000000000    000000000000000000000000000000000000000000000000000000000000                                                                                                  *
30133572312000129115359708000100108324826220106201901ELOISA LOPES LARANJEIRA                                               00000112372003283700112010620191807195805142000000000186799000000000000000    000000000000000000000000000000000000000000000000000000000000                                                                                                  *
30133572312000129115359708000100108325815900106201901DOMINGOS NORBERTO RODRIGUES                                           00000113368002701800576010620190108196305142000000000229134000000000000000    000000000000000000000000000000000000000000000000000000000000                                                                                                  *
30133572312000129115359708000100108344561570106201901AILTON DE JESUS                                                       00000112632001699100148010620191304196005142000000000201616000000000000000    000000000000000000000000000000000000000000000000000000000000                                                                                                  *
30133572312000129115359708000100108347831070106201901GENEVAL JOSE DA SILVA                                                 00000113131008230700023010620190403195805142000000000186799000000000000000    000000000000000000000000000000000000000000000000000000000000                                                                                                  *
30133572312000129115359708000100108360169520106201901JOSE APARECIDO CHICUTA                                                00000112935007627200469010620191810196205142000000000186799000000000000000    000000000000000000000000000000000000000000000000000000000000                                                                                                  *
30133572312000129115359708000100108420299711810202101LUIZ MORGADO                                                          00000117247292386400972181020210806195803134000000000663269000000000000000    000000000000000000000000000000000000000000000000000000000000                                                                                                  *
30133572312000129115359708000100108436547050106201901JERONIMO LEITE DOS SANTOS                                             00000113432001344100108010620192301196005142000000000221362000000000000000    000000000000000000000000000000000000000000000000000000000000                                                                                                  *
30133572312000129115359708000100108484086561406201901PAULO BATISTA FERNANDES                                               00000113803001398700633140620190908196307825000000000357865000000000000000    000000000000000000000000000000000000000000000000000000000000                                                                                                  *
30133572312000129115359708000100108554748390508201901ANTONIO DOMINGOS MILANO                                               00000113922006327000234050820191112196102251000000001562388000000000000000    000000000000000000000000000000000000000000000000000000000000                                                                                                  *
30133572312000129115359708000100108557003320106201901JOSE ANTONIO COSTA                                                    00000113358006777700094010620192305195905142000000000186799000000000000000    000000000000000000000000000000000000000000000000000000000000                                                                                                  *
30133572312000129115359708000100108599718370106201901ABELITO FERREIRA DOS SANTOS                                           00000112194008572600064010620192907196005142000000000186799000000000000000    000000000000000000000000000000000000000000000000000000000000                                                                                                  *
30133572312000129115359708000100108602727500106201901COSMO FERNANDES PEREIRA                                               00000112855002722000576010620190103196405142000000000203743000000000000000    000000000000000000000000000000000000000000000000000000000000                                                                                                  *
30133572312000129115359708000100108677966311901202301WALTER CARINHANHA SOARES                                              00000121324779141500801190120233012196505142000000000186799000000000000000    000000000000000000000000000000000000000000000000000000000000                                                                                                  *
30133572312000129115359708000100108746891280106201901EDSON BERNARDO DA SILVA                                               00000113537009573100121010620192811196405142000000000269997000000000000000    000000000000000000000000000000000000000000000000000000000000                                                                                                  *
30133572312000129115359708000100108805918350106201901RUBENS ALVES DA ROCHA                                                 00000112686001485900117010620190505196405142000000000243938000000000000000    000000000000000000000000000000000000000000000000000000000000                                                                                                  *
30133572312000129115359708000100108811041800106201901JOSE NERIS DA SILVA                                                   00000112280006101100104010620192508195905142000000000186799000000000000000    000000000000000000000000000000000000000000000000000000000000                                                                                                  *
30133572312000129115359708000100108823719560106201901LOURIVAL VALENTIM                                                     00000112699004423000561010620192812195705142000000000186799000000000000000    000000000000000000000000000000000000000000000000000000000000                                                                                                  *
30133572312000129115359708000100108827876640106201901JEOVA SULPINO COSTA                                                   00000113602007199600576010620190101196207825000000000330563000000000000000    000000000000000000000000000000000000000000000000000000000000                                                                                                  *
30133572312000129115359708000100108872576040106201901ANTONIO FERREIRA FILHO                                                00000113508001845100262010620192706196407825000000000393976000000000000000    000000000000000000000000000000000000000000000000000000000000                                                                                                  *
30133572312000129115359708000100108895673250106201901ALTINO COSTA                                                          00000112995004048600066010620191501195805142000000000186799000000000000000    000000000000000000000000000000000000000000000000000000000000                                                                                                  *
30133572312000129115359708000100108904935420106201901JOSE DOS REIS OLIVEIRA SANTOS                                         00000112944003563500117010620191612195705142000000000186799000000000000000    000000000000000000000000000000000000000000000000000000000000                                                                                                  *
30133572312000129115359708000100108912123180106201901EDMUNDO DE OLIVEIRA SOUZA                                             00000113512005324800588010620191608195905142000000000212955000000000000000    000000000000000000000000000000000000000000000000000000000000                                                                                                  *
30133572312000129115359708000100108917640780406201901SILVIO SILVA DE SOUZA                                                 00000113013006190100148040620192005196607825000000000331422000000000000000    000000000000000000000000000000000000000000000000000000000000                                                                                                  *
30133572312000129115359708000100108971383810106201901ANTONIO JOSE DE OLIVEIRA                                              00000113529007362300172010620190503196107825000000000405905000000000000000    000000000000000000000000000000000000000000000000000000000000                                                                                                  *
30133572312000129115359708000100108982637081206202301LUIZ CARLOS DE OLIVEIRA                                               00000122235381378800768120620232905196507825000000000329916000000000000000    000000000000000000000000000000000000000000000000000000000000                                                                                                  *
30133572312000129115359708000100108992037840106201901RUBENS DE ALMEIDA                                                     00000112428007017000143010620191101195905142000000000186799000000000000000    000000000000000000000000000000000000000000000000000000000000                                                                                                  *
30133572312000129115359708000100108994784571108202101DIVA BRANDINO DE MORAES GONCALVES                                     00000116974614440000842110820211008196605142000000000173599000000000000000    000000000000000000000000000000000000000000000000000000000000                                                                                                  *
30133572312000129115359708000100116909211821109202301ELZA DE JESUS ALVES DE SOUZA OLIVEIRA                                 00000122833444065300553110920231201197005142000000000116103000000000000000    000000000000000000000000000000000000000000000000000000000000                                                                                                  *
30133572312000129115359708000100117734794952106202301CARLOS WENDELL DE SOUSA AMORIM                                        00000122343531933200378210620232801199305142000000000186799000000000000000    000000000000000000000000000000000000000000000000000000000000                                                                                                  *
30133572312000129115359708000100120024724500106201901BENEDITO AMORIM DA SILVA                                              00000113683006869700004010620191112196005142000000000201616000000000000000    000000000000000000000000000000000000000000000000000000000000                                                                                                  *
30133572312000129115359708000100120027843121803202101MARCIO JOSE DE LIMA BARBOSA                                           00000116228845004900806180320212601196505142000000000173354000000000000000    000000000000000000000000000000000000000000000000000000000000                                                                                                  *
30133572312000129115359708000100120058080180106201901ARNALDO ALVES DE JESUS                                                00000113698001896100178010620191304196605142000000000212942000000000000000    000000000000000000000000000000000000000000000000000000000000                                                                                                  *
30133572312000129115359708000100120083002950106201901JOSE DAS GRACAS DOS SANTOS                                            00000112221002239800002010620192802196305142000000000173599000000000000000    000000000000000000000000000000000000000000000000000000000000                                                                                                  *
30133572312000129115359708000100120127121790106201901ESPERIDIAO CORREIA DA SILVA                                           00000112522009350500636010620191011196405142000000000186799000000000000000    000000000000000000000000000000000000000000000000000000000000                                                                                                  *
30133572312000129115359708000100120137835090106201901CICERO APARECIDO DOS SANTOS                                           00000112533009556400149010620190502196305142000000000186799000000000000000    000000000000000000000000000000000000000000000000000000000000                                                                                                  *
30133572312000129115359708000100120155298390106201901SILVIO APARECIDO DOS SANTOS                                           00000113008002448100006010620191307196707825000000000319626000000000000000    000000000000000000000000000000000000000000000000000000000000                                                                                                  *
30133572312000129115359708000100120158454711901202301MARCOS AURELIO LUIZ                                                   00000121315307272800077190120232104196405142000000000186799000000000000000    000000000000000000000000000000000000000000000000000000000000                                                                                                  *
30133572312000129115359708000100120162586850106201901EDVALDO NASCIMENTO SILVA                                              00000113612003639900457010620190802195605142000000000186799000000000000000    000000000000000000000000000000000000000000000000000000000000                                                                                                  *
30133572312000129115359708000100120206569320106201901EDINALDO FRANCISCO DA FONSECA                                         00000112878008820400024010620190301196607825000000000331271000000000000000    000000000000000000000000000000000000000000000000000000000000                                                                                                  *
30133572312000129115359708000100120213492940106201901EDVALDO DA SILVA FERREIRA                                             00000113609000113600091010620192603196505142000000000173599000000000000000    000000000000000000000000000000000000000000000000000000000000                                                                                                  *
30133572312000129115359708000100120220063740106201901JACO LAURIANO DA SILVA                                                00000113599007668700014010620192104196107825000000000358542000000000000000    000000000000000000000000000000000000000000000000000000000000                                                                                                  *
30133572312000129115359708000100120223065990106201901JURACI BARBOSA SANTOS                                                 00000112418003390200213010620190406196205142000000000186799000000000000000    000000000000000000000000000000000000000000000000000000000000                                                                                                  *
30133572312000129115359708000100120259036360106201901HELIO ALVES DE OLIVEIRA                                               00000113413005294600084010620192802196405142000000000186799000000000000000    000000000000000000000000000000000000000000000000000000000000                                                                                                  *
30133572312000129115359708000100120259723360106201901NELSON ROBERTO RIBEIRO DA SILVA                                       00000112744008242100633010620192108196509922000000000241641000000000000000    000000000000000000000000000000000000000000000000000000000000                                                                                                  *
30133572312000129115359708000100120274703380106201901SEBASTIAO GOMES DA SILVA                                              00000112706007312300012010620192910196205142000000000214986000000000000000    000000000000000000000000000000000000000000000000000000000000                                                                                                  *
30133572312000129115359708000100120275877660106201901BENEDITO SOARES DA SILVA                                              00000113585000465200015010620192312195905142000000000186799000000000000000    000000000000000000000000000000000000000000000000000000000000                                                                                                  *
30133572312000129115359708000100120345366160106201901JOAO JOSE DA SILVA                                                    00000112238007094900010010620190810196005142000000000186799000000000000000    000000000000000000000000000000000000000000000000000000000000                                                                                                  *
30133572312000129115359708000100120405628440106201901CICERO BENEDITO DA SILVA                                              00000112535001229700001010620191301196105142000000000201616000000000000000    000000000000000000000000000000000000000000000000000000000000                                                                                                  *
30133572312000129115359708000100120406227070106201901EGUINALDO ULISSES DO NASCIMENTO                                       00000113674000232000012010620192709196005142000000000186799000000000000000    000000000000000000000000000000000000000000000000000000000000                                                                                                  *
30133572312000129115359708000100120453807520106201901MIGUEL JOSE DOS SANTOS                                                00000112615003115700017010620193010196105142000000000186799000000000000000    000000000000000000000000000000000000000000000000000000000000                                                                                                  *
30133572312000129115359708000100120483846430106201901PEDRO BATISTA SANTIAGO                                                00000113429007182400586010620191502195605142000000000186799000000000000000    000000000000000000000000000000000000000000000000000000000000                                                                                                  *
30133572312000129115359708000100120489820280106201901SERGIO JOSE DA SILVA                                                  00000112290000925400015010620192005196005142000000000186799000000000000000    000000000000000000000000000000000000000000000000000000000000                                                                                                  *
30133572312000129115359708000100120540521180106201901JOSE CALIXTO DA SILVA FILHO                                           00000112983005486500057010620191903196005142000000000172707000000000000000    000000000000000000000000000000000000000000000000000000000000                                                                                                  *
30133572312000129115359708000100120568043031412201901EDUARDO EVANGELISTA DE CARVALHO                                       00000114525340395600806141220192004196207825000000000381486000000000000000    000000000000000000000000000000000000000000000000000000000000                                                                                                  *
30133572312000129115359708000100120570288620106201901JOSE LUIZ GOMES DA SILVA                                              00000113160000948900091010620192607196505142000000000297280000000000000000    000000000000000000000000000000000000000000000000000000000000                                                                                                  *
30133572312000129115359708000100120591092150106201901NILSON DE FARIA                                                       00000112761001274000024010620190404196105142000000000186799000000000000000    000000000000000000000000000000000000000000000000000000000000                                                                                                  *
30133572312000129115359708000100120664715360106201901ANTONIO FRANCISCO GUIMARAES FEITOSA                                   00000113699006567600097010620192809196405142000000000186799000000000000000    000000000000000000000000000000000000000000000000000000000000                                                                                                  *
30133572312000129115359708000100120685640000106201901SERGIO CUNHA MATIAS                                                   00000113003008694200055010620191308196607825000000000395201000000000000000    000000000000000000000000000000000000000000000000000000000000                                                                                                  *
30133572312000129115359708000100120718965580106201901DAMIAO RODRIGUES PITA                                                 00000112540008253800060010620192512196005142000000000173883000000000000000    000000000000000000000000000000000000000000000000000000000000                                                                                                  *
30133572312000129115359708000100120724117282106202101PAULO CESAR RODRIGUES                                                 00000116730924150100812210620212505196907825000000000385474000000000000000    000000000000000000000000000000000000000000000000000000000000                                                                                                  *
30133572312000129115359708000100120746021480106201901JOSE ALVES DA SILVA                                                   00000112252008933600048010620192703196305142000000000186799000000000000000    000000000000000000000000000000000000000000000000000000000000                                                                                                  *
30133572312000129115359708000100120746035940604202301ADAO BARBOZA DOS SANTOS                                               00000121851518510400520060420231501196605142000000000173599000000000000000    000000000000000000000000000000000000000000000000000000000000                                                                                                  *
30133572312000129115359708000100120774561260106201901MARIA MADALENA LIMA CARDOSO                                           00000112262008638900034010620192203196305142000000000173599000000000000000    000000000000000000000000000000000000000000000000000000000000                                                                                                  *
30133572312000129115359708000100120845098760106201901JOAO EVANGELISTA VIERA DO NASCIMENTO                                  00000112208000972100001010620191012196305142000000000212325000000000000000    000000000000000000000000000000000000000000000000000000000000                                                                                                  *
30133572312000129115359708000100120898622642111201901ADINALDO MORAIS                                                       00000114239008969600014211120190408196109922000000000322208000000000000000    000000000000000000000000000000000000000000000000000000000000                                                                                                  *
30133572312000129115359708000100120927620970106201901JOAO BATISTA DA SILVA                                                 00000113420006565300015010620191006196505142000000000186799000000000000000    000000000000000000000000000000000000000000000000000000000000                                                                                                  *
30133572312000129115359708000100120927987090106201901MARCIMINO CAMPOS DA SILVA                                             00000113237005091800002010620192903196305142000000000186799000000000000000    000000000000000000000000000000000000000000000000000000000000                                                                                                  *
30133572312000129115359708000100120990361110106201901GERALDO EVANGELISTA DE CARVALHO                                       00000113194006967600073010620192008196605142000000000186799000000000000000    000000000000000000000000000000000000000000000000000000000000                                                                                                  *
30133572312000129115359708000100121035061210106201901ANTONIO GOMES DA SILVA                                                00000113679003090900191010620190609196105142000000000270168000000000000000    000000000000000000000000000000000000000000000000000000000000                                                                                                  *
30133572312000129115359708000100121036488210106201901JOSE GOMES DE ANDRADE                                                 00000112949006924000073010620193005196405142000000000186799000000000000000    000000000000000000000000000000000000000000000000000000000000                                                                                                  *
30133572312000129115359708000100121052302550106201901LUIZ DONIZETI DA SILVA                                                00000113002008100600619010620191009196005142000000000214986000000000000000    000000000000000000000000000000000000000000000000000000000000                                                                                                  *
30133572312000129115359708000100121054056161205202101LORIVAL LOPES                                                         00000116386594302600843120520210909196407825000000000356715000000000000000    000000000000000000000000000000000000000000000000000000000000                                                                                                  *
30133572312000129115359708000100121066051710106201901RIVALDO ANTONIO TEIXEIRA                                              00000112853007165600267010620191105196305142000000000186799000000000000000    000000000000000000000000000000000000000000000000000000000000                                                                                                  *
30133572312000129115359708000100121124378890106201901MARTINHO DAMASCENA BRANDAO                                            00000112380001897500003010620191305196405142000000000186799000000000000000    000000000000000000000000000000000000000000000000000000000000                                                                                                  *
30133572312000129115359708000100121125418130106201901EDMILSO ALVES DA SILVA                                                00000113469002146100009010620192206196305142000000000201475000000000000000    000000000000000000000000000000000000000000000000000000000000                                                                                                  *
30133572312000129115359708000100121128860550106201901CARLOS ALBERTO QUEIROZ DE OLIVEIRA                                    00000112177009246800117010620192209196307825000000000331045000000000000000    000000000000000000000000000000000000000000000000000000000000                                                                                                  *
30133572312000129115359708000100121132027100106201901DIJALMA OLIVEIRA SOUZA                                                00000113331007439900102010620190110195905142000000000204964000000000000000    000000000000000000000000000000000000000000000000000000000000                                                                                                  *
30133572312000129115359708000100121134816870106201901JOSE DE CASTRO OLIVEIRA                                               00000112517002992700073010620192907196405142000000000186799000000000000000    000000000000000000000000000000000000000000000000000000000000                                                                                                  *
30133572312000129115359708000100121193944250106201901MANOEL CARLOS DA SILVA FIGUEIREDO                                     00000113110008854200209010620190802196205142000000000186799000000000000000    000000000000000000000000000000000000000000000000000000000000                                                                                                  *
30133572312000129115359708000100121236370190902202101VALTER PEREIRA                                                        00000116111145216400800090220211506196807825000000000330891000000000000000    000000000000000000000000000000000000000000000000000000000000                                                                                                  *
30133572312000129115359708000100121242635700106201901JOSE SATURNINO DE OLIVEIRA                                            00000112239001129100201010620192602196205142000000000186799000000000000000    000000000000000000000000000000000000000000000000000000000000                                                                                                  *
30133572312000129115359708000100121249602630106201901JO ROSA RODRIGUES                                                     00000113370009153200070010620192307196605142000000000229134000000000000000    000000000000000000000000000000000000000000000000000000000000                                                                                                  *
30133572312000129115359708000100121257298750106201901MANOEL HENRIQUE CONCEICAO                                             00000113140005827500129010620190609196405142000000000214986000000000000000    000000000000000000000000000000000000000000000000000000000000                                                                                                  *
30133572312000129115359708000100121257742502106202101ADILSON FERREIRA DO NASCIMENTO                                        00000116729918434200897210620212806196507825000000000395810000000000000000    000000000000000000000000000000000000000000000000000000000000                                                                                                  *
30133572312000129115359708000100121315810350106201901IVO FERREIRA DE AZEVEDO                                               00000113072000081100044010620192309196205142000000000170340000000000000000    000000000000000000000000000000000000000000000000000000000000                                                                                                  *
30133572312000129115359708000100121342719830106201901JOSE JORGE DOS SANTOS                                                 00000113395000329200207010620191108196505142000000000214986000000000000000    000000000000000000000000000000000000000000000000000000000000                                                                                                  *
30133572312000129115359708000100121418909790106201901GILBERTO SILVA SANTOS                                                 00000113272007058600010010620191105196405142000000000186799000000000000000    000000000000000000000000000000000000000000000000000000000000                                                                                                  *
30133572312000129115359708000100121438649590106201901MARCO ANTONIO MARTINS                                                 00000113273001785800085010620191610197105142000000000240412000000000000000    000000000000000000000000000000000000000000000000000000000000                                                                                                  *
30133572312000129115359708000100121438662690106201901ROMILDO GOMES DE MELO                                                 00000112257004274300005010620191411196505142000000000186799000000000000000    000000000000000000000000000000000000000000000000000000000000                                                                                                  *
30133572312000129115359708000100121442092020106201901GENILSON BATISTA CALADO                                               00000113136005383200148010620190407196505142000000000243579000000000000000    000000000000000000000000000000000000000000000000000000000000                                                                                                  *
30133572312000129115359708000100121461797340106201901ANTONIO CARLOS ALVES RAMOS                                            00000113369003521900015010620191211196305142000000000186799000000000000000    000000000000000000000000000000000000000000000000000000000000                                                                                                  *
30133572312000129115359708000100121503006310106201901DOMINGOS MENEZES DANTAS                                               00000113364009970900009010620190901196605142000000000229134000000000000000    000000000000000000000000000000000000000000000000000000000000                                                                                                  *
30133572312000129115359708000100121512669332204202101EDNILSON ALVES FERREIRA                                               00000116327066672900863220420211610196605142000000000173599000000000000000    000000000000000000000000000000000000000000000000000000000000                                                                                                  *
30133572312000129115359708000100121512676110306201901JOAO ANDRE GALVAO                                                     00000113715006578800041030620193107196307152000000000351931000000000000000    000000000000000000000000000000000000000000000000000000000000                                                                                                  *
30133572312000129115359708000100121513324050106201901GERALDO LEONILDO DA SILVA                                             00000113202004350300033010620190508196505142000000000169472000000000000000    000000000000000000000000000000000000000000000000000000000000                                                                                                  *
30133572312000129115359708000100121527884880106201901LUIZ ANTONIO DO AMARANTE SOUSA                                        00000112975000312100003010620191002196405112000000000615404000000000000000    000000000000000000000000000000000000000000000000000000000000                                                                                                  *
30133572312000129115359708000100121552966911808202201ADILSON DA CUNHA ALENCAR                                              00000120186885627000838180820222010196807825000000000397859000000000000000    000000000000000000000000000000000000000000000000000000000000                                                                                                  *
30133572312000129115359708000100121571321490106201901ORLANDO SEBASTIAO DA SILVA                                            00000113032003252600006010620192310196605142000000000186799000000000000000    000000000000000000000000000000000000000000000000000000000000                                                                                                  *
30133572312000129115359708000100121571725070106201901GERALDO MANOEL DO NASCIMENTO                                          00000113209009221900005010620190105196205142000000000186799000000000000000    000000000000000000000000000000000000000000000000000000000000                                                                                                  *
30133572312000129115359708000100121669618100106201901FRANCISCO DAS CHAGAS GOMES PINTO                                      00000112870000494100003010620192702196005142000000000186799000000000000000    000000000000000000000000000000000000000000000000000000000000                                                                                                  *
30133572312000129115359708000100121690967620106201901EDMILSON LOPES SALES                                                  00000113498009008400085010620192912196505142000000000193220000000000000000    000000000000000000000000000000000000000000000000000000000000                                                                                                  *
30133572312000129115359708000100121703579141108202101AILTON CLAUDINO DA SILVA                                              00000116968648851300893110820212806196505142000000000173599000000000000000    000000000000000000000000000000000000000000000000000000000000                                                                                                  *
30133572312000129115359708000100121707249681302202001ANALCASSIS LAMBIAZZI                                                  00000114682263774600874130220200212196905142000000000173599000000000000000    000000000000000000000000000000000000000000000000000000000000                                                                                                  *
30133572312000129115359708000100121713095060106201901MARCO AURELIO FREITAS PACHECO                                         00000113276006173000015010620192111196505142000000000173599000000000000000    000000000000000000000000000000000000000000000000000000000000                                                                                                  *
30133572312000129115359708000100121715717150106201901APARECIDO DA SILVA                                                    00000113631003503200063010620190509196305142000000000229134000000000000000    000000000000000000000000000000000000000000000000000000000000                                                                                                  *
30133572312000129115359708000100121746025300106201901WILSON AUGUSTO                                                        00000112907000104900084010620192911196305142000000000262924000000000000000    000000000000000000000000000000000000000000000000000000000000                                                                                                  *
30133572312000129115359708000100121785605730106201901GERALDO GUEDES DA SILVA                                               00000113199000858400023010620192604196505142000000000186799000000000000000    000000000000000000000000000000000000000000000000000000000000                                                                                                  *
30133572312000129115359708000100121803329220106201901GILBERTO DA COSTA                                                     00000113260005257300084010620192703196305142000000000173520000000000000000    000000000000000000000000000000000000000000000000000000000000                                                                                                  *
30133572312000129115359708000100121851034090106201901ANGELO JOSE DOS SANTOS                                                00000113415006570000048010620192110196005142000000000186799000000000000000    000000000000000000000000000000000000000000000000000000000000                                                                                                  *
30133572312000129115359708000100121852102050106201901JOSE AVELINO DE SOUSA FILHO                                           00000112989009182600007010620192304196409922000000000242859000000000000000    000000000000000000000000000000000000000000000000000000000000                                                                                                  *
30133572312000129115359708000100121866686200106201901NIVALDO SEPERO DOS SANTOS                                             00000112833008963300082010620190107196305142000000000186799000000000000000    000000000000000000000000000000000000000000000000000000000000                                                                                                  *
30133572312000129115359708000100121871478100106201901GRACIMAR MARIA PASSOS                                                 00000113376002293600064010620190810196505142000000000186799000000000000000    000000000000000000000000000000000000000000000000000000000000                                                                                                  *
30133572312000129115359708000100121889022561003202201JOSE AUGUSTO DOS SANTOS                                               00000119111200669100520100320222508196509922000000000322208000000000000000    000000000000000000000000000000000000000000000000000000000000                                                                                                  *
30133572312000129115359708000100121902251500106201901RENATO LUIZ PEREIRA                                                   00000113627002545200050010620192203196405142000000000173599000000000000000    000000000000000000000000000000000000000000000000000000000000                                                                                                  *
30133572312000129115359708000100121916177612703202001ALECIO CARVALHO DA SILVA                                              00000114976628792500842270320201703196107825000000000398694000000000000000    000000000000000000000000000000000000000000000000000000000000                                                                                                  *
30133572312000129115359708000100121934058502407202301LAERCIO MARIANO DE ABREU                                              00000122571071421300870240720231212196907825000000000395598000000000000000    000000000000000000000000000000000000000000000000000000000000                                                                                                  *
30133572312000129115359708000100121934906290106201901JOEL PEREIRA DO NASCIMENTO                                            00000112928009189400157010620191306196405142000000000186799000000000000000    000000000000000000000000000000000000000000000000000000000000                                                                                                  *
30133572312000129115359708000100121961561930106201901ALTAMIR REIS LUIZ                                                     00000113086004763600223010620192008196907825000000000331076000000000000000    000000000000000000000000000000000000000000000000000000000000                                                                                                  *
30133572312000129115359708000100121986367100106201901ITAMAR INACIO DA SILVA                                                00000112531006090200082010620191507197005142000000000186799000000000000000    000000000000000000000000000000000000000000000000000000000000                                                                                                  *
30133572312000129115359708000100122009169750106201901JOANA MORAIS OLIVEIRA                                                 00000112204008529800174010620192506196005142000000000212377000000000000000    000000000000000000000000000000000000000000000000000000000000                                                                                                  *
30133572312000129115359708000100122010037792603202001RUBENS DA ROCHA                                                       00000114938919186400836260320201611196505142000000000173599000000000000000    000000000000000000000000000000000000000000000000000000000000                                                                                                  *
30133572312000129115359708000100122025435480106201901GERSON DE JESUS SOARES                                                00000113228009333100115010620190603196605142000000000243358000000000000000    000000000000000000000000000000000000000000000000000000000000                                                                                                  *
30133572312000129115359708000100122027817670106201901VALDIR BARBOSA FERREIRA                                               00000112566003020000144010620190104196005142000000000201612000000000000000    000000000000000000000000000000000000000000000000000000000000                                                                                                  *
30133572312000129115359708000100122032149200106201901JOAO PEREIRA DE OLIVEIRA                                              00000112926006163000008010620192802196305142000000000186799000000000000000    000000000000000000000000000000000000000000000000000000000000                                                                                                  *
30133572312000129115359708000100122036515140106201901JONATAS BARBOSA DE OLIVEIRA                                           00000113649006513300073010620192603196607151000000000610777000000000000000    000000000000000000000000000000000000000000000000000000000000                                                                                                  *
30133572312000129115359708000100122061880090106201901RAIMUNDO NONATO FILHO                                                 00000113555003679700209010620190411196405142000000000186799000000000000000    000000000000000000000000000000000000000000000000000000000000                                                                                                  *
30133572312000129115359708000100122081911040106201901FAUSTINIANO MONTEIRO MAGALHAES                                        00000112749001323400129010620191601196505142000000000186799000000000000000    000000000000000000000000000000000000000000000000000000000000                                                                                                  *
30133572312000129115359708000100122084053410306201901MONICA PAULA DA SILVA                                                 00000113741002713200063030620191809196501423000000000817755000000000000000    000000000000000000000000000000000000000000000000000000000000                                                                                                  *
30133572312000129115359708000100122108319800106201901JOAO DA COSTA NUNES                                                   00000113375006953600100010620190604196605142000000000214986000000000000000    000000000000000000000000000000000000000000000000000000000000                                                                                                  *
30133572312000129115359708000100122165485552603202001JOSE RAIMUNDO DA SILVA                                                00000114926599205700404260320203004196905142000000000172455000000000000000    000000000000000000000000000000000000000000000000000000000000                                                                                                  *
30133572312000129115359708000100122166377440106201901GENIVALDO DA SILVA                                                    00000113150004781200031010620191308197205142000000000242738000000000000000    000000000000000000000000000000000000000000000000000000000000                                                                                                  *
30133572312000129115359708000100122190980380106201901MANOEL ARAUJO DE BARROS                                               00000113101006045600032010620192602196505142000000000173599000000000000000    000000000000000000000000000000000000000000000000000000000000                                                                                                  *
30133572312000129115359708000100122191024340106201901JOAO SEBASTIAO DA SILVA                                               00000112248002107700015010620191508195005142000000000186799000000000000000    000000000000000000000000000000000000000000000000000000000000                                                                                                  *
30133572312000129115359708000100122212668990106201901JOSE ILARIO DOS SANTOS                                                00000113118003457900003010620191001196309921000000000465661000000000000000    000000000000000000000000000000000000000000000000000000000000                                                                                                  *
30133572312000129115359708000100122224392660106201901NELSON BARBOSA                                                        00000112718009533300003010620192707196805142000000000186799000000000000000    000000000000000000000000000000000000000000000000000000000000                                                                                                  *
30133572312000129115359708000100122290689720106201901IVANILDO DA SILVA LEITE                                               00000113094007232700003010620190812195805142000000000173599000000000000000    000000000000000000000000000000000000000000000000000000000000                                                                                                  *
30133572312000129115359708000100122303797650106201901AILTON JOSE DO NASCIMENTO                                             00000112549006432000024010620192207196705142000000000201616000000000000000    000000000000000000000000000000000000000000000000000000000000                                                                                                  *
30133572312000129115359708000100122317189460106201901PETRONILIO MACARIO DOS SANTOS                                         00000113708008066100082010620190909196105142000000000173520000000000000000    000000000000000000000000000000000000000000000000000000000000                                                                                                  *
30133572312000129115359708000100122325622300106201901PEDRO AMARO DA SILVA                                                  00000113407001644100085010620191009196307825000000000326180000000000000000    000000000000000000000000000000000000000000000000000000000000                                                                                                  *
30133572312000129115359708000100122326935210106201901MARTINS TOMAZ DE MIRANDA                                              00000112392001656900085010620191711196105142000000000186799000000000000000    000000000000000000000000000000000000000000000000000000000000                                                                                                  *
30133572312000129115359708000100122365200442101202201MARCELO SILVA                                                         00000118641019471300873210120221606196905142000000000173599000000000000000    000000000000000000000000000000000000000000000000000000000000                                                                                                  *
30133572312000129115359708000100122374599850106201901JOSE DOMINGOS ALVES DE OLIVEIRA                                       00000112264004239900027010620191504195805142000000000186799000000000000000    000000000000000000000000000000000000000000000000000000000000                                                                                                  *
30133572312000129115359708000100122375942620106201901JOSE ANTONIO TAVARES DA SILVA                                         00000112508000272700075010620191009196309922000000000298329000000000000000    000000000000000000000000000000000000000000000000000000000000                                                                                                  *
30133572312000129115359708000100122398579370106201901OSMAR NOGUEIRA DA SILVA                                               00000113083003296400010010620192305196509922000000000322215000000000000000    000000000000000000000000000000000000000000000000000000000000                                                                                                  *
30133572312000129115359708000100122399332690601202201ATAIDE BERNARDO RODRIGUES                                             00000118056234584100818060120221101196505142000000000205765000000000000000    000000000000000000000000000000000000000000000000000000000000                                                                                                  *
30133572312000129115359708000100122402608250106201901ANTONIO GOMES DA MOTA                                                 00000113515007702900010010620191002196305142000000000201616000000000000000    000000000000000000000000000000000000000000000000000000000000                                                                                                  *
30133572312000129115359708000100122404571730106201901IRINEU DE LIMA ASSUMPCAO                                              00000113489006924100147010620190607197105142000000000186799000000000000000    000000000000000000000000000000000000000000000000000000000000                                                                                                  *
30133572312000129115359708000100122405143390406201901CARLOS HENRIQUE BASTOS DE OLIVEIRA                                    00000112186008477600064040620193105196905142000000000207327000000000000000    000000000000000000000000000000000000000000000000000000000000                                                                                                  *
30133572312000129115359708000100122437172140106201901JORGE RUBENS MORENO SOARES                                            00000113435003858300157010620191705196605142000000000214986000000000000000    000000000000000000000000000000000000000000000000000000000000                                                                                                  *
30133572312000129115359708000100122437578520106201901RAUL APARECIDO LADISLAU                                               00000113573000316400069010620190510196805142000000000186799000000000000000    000000000000000000000000000000000000000000000000000000000000                                                                                                  *
30133572312000129115359708000100122456766550106201901REGINALDO CANDIDO DOS SANTOS                                          00000113687003778400117010620192903196305142000000000186799000000000000000    000000000000000000000000000000000000000000000000000000000000                                                                                                  *
30133572312000129115359708000100122485504230106201901JOSE GASPARINO DE BRITO                                               00000112353009995200082010620191607196505142000000000201616000000000000000    000000000000000000000000000000000000000000000000000000000000                                                                                                  *
30133572312000129115359708000100122487926990106201901GILBERTO GOMES TEIXEIRA                                               00000113268001511100084010620190705196705142000000000173599000000000000000    000000000000000000000000000000000000000000000000000000000000                                                                                                  *
30133572312000129115359708000100122488348550106201901ANTONIO LIMA DE LACERDA                                               00000113549008397200172010620192608197005142000000000123839000000000000000    000000000000000000000000000000000000000000000000000000000000                                                                                                  *
30133572312000129115359708000100122488459970106201901TIBURTINO BESERRA DA SILVA NETO                                       00000112489004093100011010620191804196605142000000000186799000000000000000    000000000000000000000000000000000000000000000000000000000000                                                                                                  *
30133572312000129115359708000100122499544710106201901JOSE RAIMUNDO DAS CHAGAS                                              00000113635001883700139010620192609196707825000000000331076000000000000000    000000000000000000000000000000000000000000000000000000000000                                                                                                  *
30133572312000129115359708000100122531724900106201901SILVIO LUIZ DOS SANTOS                                                00000112481000273500084010620191108196909922000000000243579000000000000000    000000000000000000000000000000000000000000000000000000000000                                                                                                  *
30133572312000129115359708000100122716314340106201901JOAO BATISTA DA SILVA                                                 00000113373008726000011010620191502196505142000000000214986000000000000000    000000000000000000000000000000000000000000000000000000000000                                                                                                  *
30133572312000129115359708000100122717916521810202101JOSE DE ASSIS DA SILVA                                                00000117244054231300898181020210204196805142000000000172644000000000000000    000000000000000000000000000000000000000000000000000000000000                                                                                                  *
30133572312000129115359708000100122718262190110201901RONALDO ROCHA DA SILVA                                                00000114125007356600223011020191908196805142000000000186799000000000000000    000000000000000000000000000000000000000000000000000000000000                                                                                                  *
30133572312000129115359708000100122719976762407202301DANIEL ALVES DANTAS PEIXINHO                                          00000122573696782900572240720230901197007825000000000385748000000000000000    000000000000000000000000000000000000000000000000000000000000                                                                                                  *
30133572312000129115359708000100122737206120106201901JOSE ANTONIO DA SILVA FILHO                                           00000113617010999200010010620191812197107825000000000331422000000000000000    000000000000000000000000000000000000000000000000000000000000                                                                                                  *
30133572312000129115359708000100122737254600106201901ANTONIO MARCOS MARQUES                                                00000113558004988300026010620192110197205142000000000186799000000000000000    000000000000000000000000000000000000000000000000000000000000                                                                                                  *
30133572312000129115359708000100122755635810106201901IZAIAS VIEIRA COSTA                                                   00000112967004196800143010620192005197105142000000000212944000000000000000    000000000000000000000000000000000000000000000000000000000000                                                                                                  *
30133572312000129115359708000100122762240470106201901JOSE CARLOS ZACARIAS                                                  00000112328008467300191010620190909196805142000000000186799000000000000000    000000000000000000000000000000000000000000000000000000000000                                                                                                  *
30133572312000129115359708000100122773083330106201901SEVERINO ISIDIO DA SILVA                                              00000112717001653800010010620191506196005142000000000290901000000000000000    000000000000000000000000000000000000000000000000000000000000                                                                                                  *
30133572312000129115359708000100122786323120106201901JOAO MANOEL DA SILVA                                                  00000113363000021600097010620192406196705142000000000186799000000000000000    000000000000000000000000000000000000000000000000000000000000                                                                                                  *
30133572312000129115359708000100122806878032803202001JOSE LOURENCO DE SOUSA                                                00000114991918276200368280320201101196705142000000000207326000000000000000    000000000000000000000000000000000000000000000000000000000000                                                                                                  *
30133572312000129115359708000100122839561200106201901JOSE MANOEL DE ANDRADE                                                00000112951004788200238010620191104196805142000000000186799000000000000000    000000000000000000000000000000000000000000000000000000000000                                                                                                  *
30133572312000129115359708000100122842248080106201901NOBERTO NOGUEIRA DE AGUIAR                                            00000112845007038100083010620192602197107825000000000330669000000000000000    000000000000000000000000000000000000000000000000000000000000                                                                                                  *
30133572312000129115359708000100122844872801108202101LUCIANO ROBERTO DE OLIVEIRA                                           00000116980144431500811110820211407197007825000000000394910000000000000000    000000000000000000000000000000000000000000000000000000000000                                                                                                  *
30133572312000129115359708000100122844929690106201901JONAS FERREIRA DA SILVA                                               00000113645001406200082010620191012196307825000000000401818000000000000000    000000000000000000000000000000000000000000000000000000000000                                                                                                  *
30133572312000129115359708000100122849570820903202301CARLOS LUIS LIMA MATOS                                                00000121674700992600887090320232306197105142000000000173599000000000000000    000000000000000000000000000000000000000000000000000000000000                                                                                                  *
30133572312000129115359708000100122856933050106201901JURACI CUSTODIO DE LIMA                                               00000112421009661900005010620191112196505142000000000173599000000000000000    000000000000000000000000000000000000000000000000000000000000                                                                                                  *
30133572312000129115359708000100122862988090106201901JAIR SOARES DE OLIVEIRA                                               00000113410000423500088010620192806197105142000000000214986000000000000000    000000000000000000000000000000000000000000000000000000000000                                                                                                  *
30133572312000129115359708000100122877959700306201901ROBSON AMORIM DOS SANTOS                                              00000113723000940500139030620190508197207170000000000245168000000000000000    000000000000000000000000000000000000000000000000000000000000                                                                                                  *
30133572312000129115359708000100122893841960106201901JOSE HILDO DE MELO                                                    00000112495003007100110010620192404196605142000000000212974000000000000000    000000000000000000000000000000000000000000000000000000000000                                                                                                  *
30133572312000129115359708000100122894304061803202101GERALDO CORREA                                                        00000116235003577700842180320210608196905142000000000186799000000000000000    000000000000000000000000000000000000000000000000000000000000                                                                                                  *
30133572312000129115359708000100122894602240106201901ARMANDO IZIDIO DOS SANTOS                                             00000113681004388600098010620192305196305142000000000186799000000000000000    000000000000000000000000000000000000000000000000000000000000                                                                                                  *
30133572312000129115359708000100122898888362703202001EDIVALDO SILVA DA COSTA                                               00000114977384239100404270320201804196905142000000000173599000000000000000    000000000000000000000000000000000000000000000000000000000000                                                                                                  *
30133572312000129115359708000100122915694400106201901DIMAS XAVIER DE JESUS                                                 00000113341005273800017010620190112196505142000000000186799000000000000000    000000000000000000000000000000000000000000000000000000000000                                                                                                  *
30133572312000129115359708000100122935097710106201901HELCIO SOARES SARAIVA                                                 00000113405001073600087010620192806196705142000000000186799000000000000000    000000000000000000000000000000000000000000000000000000000000                                                                                                  *
30133572312000129115359708000100122935493740106201901VALDECIR APARECIDO GONCALVES                                          00000112498009044100198010620191312197005142000000000186799000000000000000    000000000000000000000000000000000000000000000000000000000000                                                                                                  *
30133572312000129115359708000100122938847932803202001HUMBERTO CARLOS DA SILVA                                              00000114990298139200875280320202401196707825000000000274663000000000112588    000000000000000000000000000000000000000112588000000000000000                                                                                                  *
32133572312000129115359708000100122938847932803202001HUMBERTO CARLOS DA SILVA                                              I125092023S                                                                                                                                                                                                                                 *
30133572312000129115359708000100122939682370106201901ADILSON GOMES EMIDIO                                                  00000112355004747700214010620192111196805142000000000201616000000000000000    000000000000000000000000000000000000000000000000000000000000                                                                                                  *
30133572312000129115359708000100122965844130106201901JOEL PEREIRA CRUZ FILHO                                               00000112959003235500072010620191303196705142000000000173599000000000000000    000000000000000000000000000000000000000000000000000000000000                                                                                                  *
30133572312000129115359708000100122974752780106201901ARLETE CRISTINA DOS SANTOS AMORIM                                     00000113686002933000067010620191903196905142000000000186799000000000000000    000000000000000000000000000000000000000000000000000000000000                                                                                                  *
30133572312000129115359708000100122975888892603202001HELIO CORDEIRO LUCIO                                                  00000114948673966900864260320200601196707825000000000330473000000000000000    000000000000000000000000000000000000000000000000000000000000                                                                                                  *
30133572312000129115359708000100122977785131505202301PEDRO FLOR DE LIMA                                                    00000122086249341000866150520231403197305142000000000173473000000000000000    000000000000000000000000000000000000000000000000000000000000                                                                                                  *
30133572312000129115359708000100122978442490512201901MAURICIO CAMPOS DOS SANTOS                                            00000114272258151300837051220191702197405142000000000186799000000000000000    000000000000000000000000000000000000000000000000000000000000                                                                                                  *
30133572312000129115359708000100122984609910106201901COSMO JOSE DE OLIVEIRA                                                00000112860007034000003010620190601196505142000000000173599000000000000000    000000000000000000000000000000000000000000000000000000000000                                                                                                  *
30133572312000129115359708000100122984772900106201901FRANCISCO NACELIO DE SOUSA                                            00000113029003841300074010620192203196807825000000000331422000000000000000    000000000000000000000000000000000000000000000000000000000000                                                                                                  *
30133572312000129115359708000100123014274220106201901MANOEL CARLOS DE SOUZA COSTA                                          00000113116005615300088010620192004197205142000000000186799000000000000000    000000000000000000000000000000000000000000000000000000000000                                                                                                  *
30133572312000129115359708000100123022786410106201901SANDRO HARUO AGUENA                                                   00000113732001910200091010620190210196703134000000000615404000000000000000    000000000000000000000000000000000000000000000000000000000000                                                                                                  *
30133572312000129115359708000100123024096060106201901CLAUDINEI OLIVEIRA E SILVA                                            00000112559007712100195010620192002197205142000000000260676000000000000000    000000000000000000000000000000000000000000000000000000000000                                                                                                  *
30133572312000129115359708000100123027187810106201901CRISTOVAO DE SOUSA                                                    00000112916003949100267010620190708196905142000000000201616000000000000000    000000000000000000000000000000000000000000000000000000000000                                                                                                  *
30133572312000129115359708000100123028041490106201901GILSON DE OLIVEIRA                                                    00000113289004156200021010620192803196605142000000000186799000000000000000    000000000000000000000000000000000000000000000000000000000000                                                                                                  *
30133572312000129115359708000100123028520540106201901JOAO BATISTA DE SOUZA                                                 00000112917003864900129010620190602196805142000000000186799000000000000000    000000000000000000000000000000000000000000000000000000000000                                                                                                  *
30133572312000129115359708000100123030087610106201901JOSE FRANCISCO VARELA                                                 00000113385003436200006010620191301196105142000000000214986000000000000000    000000000000000000000000000000000000000000000000000000000000                                                                                                  *
30133572312000129115359708000100123030587692703202001WAGNER SANTANA XAVIER                                                 00000114981477591200810270320202101197107825000000000329795000000000000000    000000000000000000000000000000000000000000000000000000000000                                                                                                  *
30133572312000129115359708000100123032816380106201901NILTON PEREIRA GARCIA                                                 00000112810007806000102010620193107196705142000000000214986000000000000000    000000000000000000000000000000000000000000000000000000000000                                                                                                  *
30133572312000129115359708000100123075950760406201901FRANCISCO DUTRA DA PAIXAO                                             00000112904002716200140040620192703197007825000000000329449000000000000000    000000000000000000000000000000000000000000000000000000000000                                                                                                  *
30133572312000129115359708000100123081087130106201901CARLOS ALBERTO TEIXEIRA RAMOS                                         00000112179002876200024010620191709196405142000000000172313000000000000000    000000000000000000000000000000000000000000000000000000000000                                                                                                  *
30133572312000129115359708000100123083622451306202201DORVALINO BRUIANI                                                     00000119645709258600968130620221301196805142000000000173599000000000000000    000000000000000000000000000000000000000000000000000000000000                                                                                                  *
30133572312000129115359708000100123084781700106201901JOSE ARNALDO DOS SANTOS                                               00000112255002737000120010620192503196605142000000000186799000000000000000    000000000000000000000000000000000000000000000000000000000000                                                                                                  *
30133572312000129115359708000100123085623090106201901RENATO LUIZ DOS SANTOS                                                00000113630003854600102010620190710197205142000000000229134000000000000000    000000000000000000000000000000000000000000000000000000000000                                                                                                  *
30133572312000129115359708000100123085691331902202001JAIR VIEIRA DA COSTA                                                  00000114800513644100828190220201408196707825000000000329033000000000000000    000000000000000000000000000000000000000000000000000000000000                                                                                                  *
30133572312000129115359708000100123086120550106201901FABIO PEREIRA BARROS                                                  00000112724000492000102010620191008197305142000000000173599000000000000000    000000000000000000000000000000000000000000000000000000000000                                                                                                  *
30133572312000129115359708000100123086612690106201901VALTER JOSE DA SILVA                                                  00000112333002636400085010620190602196905142000000000186799000000000000000    000000000000000000000000000000000000000000000000000000000000                                                                                                  *
30133572312000129115359708000100123114380950106201901HUMBERTO JOSE DA SILVA                                                00000113471005723300024010620190812197305142000000000173599000000000000000    000000000000000000000000000000000000000000000000000000000000                                                                                                  *
30133572312000129115359708000100123139521790106201901SILVIO BATISTA DE LIRA                                                00000112725006226400147010620190512197109922000000000262827000000000000000    000000000000000000000000000000000000000000000000000000000000                                                                                                  *
30133572312000129115359708000100123141427820106201901PAULO HENRIQUE MAPA                                                   00000113262007002300143010620190503197105142000000000186799000000000000000    000000000000000000000000000000000000000000000000000000000000                                                                                                  *
30133572312000129115359708000100123143485420106201901SAMUEL ALVES DOS ANJOS                                                00000112434000431100088010620190209196705142000000000186799000000000000000    000000000000000000000000000000000000000000000000000000000000                                                                                                  *
30133572312000129115359708000100123173659010106201901ANTONIO AMORIM DA SILVA                                               00000113431001244200003010620190211196805142000000000201616000000000000000    000000000000000000000000000000000000000000000000000000000000                                                                                                  *
30133572312000129115359708000100123188261630106201901MAGNOBALDO PEREIRA SANTOS                                             00000113073006228800024010620191704196805142000000000214986000000000000000    000000000000000000000000000000000000000000000000000000000000                                                                                                  *
30133572312000129115359708000100123203479350508202001CLAUDEMIR APARECIDO DE FREITAS                                        00000115415481580900828050820202507197505142000000000212832000000000000000    000000000000000000000000000000000000000000000000000000000000                                                                                                  *
30133572312000129115359708000100123211305570106201901MANOEL DE ASSIS DA SILVA                                              00000113122000446800139010620191703196805142000000000186799000000000000000    000000000000000000000000000000000000000000000000000000000000                                                                                                  *
30133572312000129115359708000100123236997001505202301JOSE ALBINO DE JESUS                                                  00000122080189283300875150520232004196705142000000000173599000000000000000    000000000000000000000000000000000000000000000000000000000000                                                                                                  *
30133572312000129115359708000100123237247992603202001FRANCISCO DE ASSIS SOUZA                                              00000114954662020600867260320202505196507825000000000331422000000000000000    000000000000000000000000000000000000000000000000000000000000                                                                                                  *
30133572312000129115359708000100123240110440106201901PEDRO PAULO DE ASSIS                                                  00000113470009384600134010620190312196905142000000000201616000000000000000    000000000000000000000000000000000000000000000000000000000000                                                                                                  *
30133572312000129115359708000100123242217071812201901CARLOS ALBERTO ALVES                                                  00000114549253618600822181220193103197105142000000000214986000000000000000    000000000000000000000000000000000000000000000000000000000000                                                                                                  *
30133572312000129115359708000100123242869730106201901ARNALDO DA SILVA                                                      00000113704006441100134010620192404196805142000000000201616000000000000000    000000000000000000000000000000000000000000000000000000000000                                                                                                  *
30133572312000129115359708000100123245018150106201901DAVID PEREIRA LIMA                                                    00000113068007375500698010620190808196905142000000000298639000000000000000    000000000000000000000000000000000000000000000000000000000000                                                                                                  *
